{
  "_format": "hh-sol-artifact-1",
  "contractName": "MockHTS",
  "sourceName": "test/MockHTS.sol",
  "abi": [
    {
      "inputs": [],
      "name": "INSUFFICIENT_BALANCE",
      "outputs": [
        {
          "internalType": "int64",
          "name": "",
          "type": "int64"
        }
      ],
      "stateMutability": "view",
      "type": "function"
    },
    {
      "inputs": [],
      "name": "SUCCESS",
      "outputs": [
        {
          "internalType": "int64",
          "name": "",
          "type": "int64"
        }
      ],
      "stateMutability": "view",
      "type": "function"
    },
    {
      "inputs": [
        {
          "internalType": "address",
          "name": "",
          "type": "address"
        },
        {
          "internalType": "address",
          "name": "",
          "type": "address"
        }
      ],
      "name": "associateToken",
      "outputs": [
        {
          "internalType": "int64",
          "name": "",
          "type": "int64"
        }
      ],
      "stateMutability": "pure",
      "type": "function"
    },
    {
      "inputs": [
        {
          "internalType": "address",
          "name": "token",
          "type": "address"
        },
        {
          "internalType": "address",
          "name": "account",
          "type": "address"
        }
      ],
      "name": "balanceOf",
      "outputs": [
        {
          "internalType": "int64",
          "name": "",
          "type": "int64"
        }
      ],
      "stateMutability": "view",
      "type": "function"
    },
    {
      "inputs": [
        {
          "internalType": "address",
          "name": "token",
          "type": "address"
        },
        {
          "internalType": "address",
          "name": "account",
          "type": "address"
        },
        {
          "internalType": "int64",
          "name": "amount",
          "type": "int64"
        }
      ],
      "name": "mintTo",
      "outputs": [],
      "stateMutability": "nonpayable",
      "type": "function"
    },
    {
      "inputs": [
        {
          "internalType": "address",
          "name": "token",
          "type": "address"
        },
        {
          "internalType": "address",
          "name": "sender",
          "type": "address"
        },
        {
          "internalType": "address",
          "name": "recipient",
          "type": "address"
        },
        {
          "internalType": "int64",
          "name": "amount",
          "type": "int64"
        }
      ],
      "name": "transferToken",
      "outputs": [
        {
          "internalType": "int64",
          "name": "",
          "type": "int64"
        }
      ],
      "stateMutability": "nonpayable",
      "type": "function"
    }
  ],
  "bytecode": "0x608060405234801561001057600080fd5b5061041a806100206000396000f3fe608060405234801561001057600080fd5b50600436106100625760003560e01c806325ef49c71461006757806349146bde1461007c57806350b1f356146100a6578063d0a6d1a6146100ae578063eca36917146100b6578063f7888aec146100c9575b600080fd5b61007a6100753660046102a6565b610103565b005b61008f61008a3660046102e9565b610169565b60405160079190910b815260200160405180910390f35b61008f60a181565b61008f601681565b61008f6100c436600461031c565b610172565b61008f6100d73660046102e9565b6001600160a01b0391821660009081526020818152604080832093909416825291909152205460070b90565b6001600160a01b038084166000908152602081815260408083209386168352929052908120805483929061013b90849060070b610386565b92506101000a81548167ffffffffffffffff021916908360070b67ffffffffffffffff160217905550505050565b60165b92915050565b6001600160a01b03808516600090815260208181526040808320938716835292905290812054600783810b91900b12156101ae575060a1610270565b6001600160a01b03808616600090815260208181526040808320938816835292905290812080548492906101e690849060070b6103b5565b825467ffffffffffffffff9182166101009390930a9283029190920219909116179055506001600160a01b038086166000908152602081815260408083209387168352929052908120805484929061024290849060070b610386565b92506101000a81548167ffffffffffffffff021916908360070b67ffffffffffffffff160217905550601690505b949350505050565b80356001600160a01b038116811461028f57600080fd5b919050565b8035600781900b811461028f57600080fd5b6000806000606084860312156102bb57600080fd5b6102c484610278565b92506102d260208501610278565b91506102e060408501610294565b90509250925092565b600080604083850312156102fc57600080fd5b61030583610278565b915061031360208401610278565b90509250929050565b6000806000806080858703121561033257600080fd5b61033b85610278565b935061034960208601610278565b925061035760408601610278565b915061036560608601610294565b905092959194509250565b634e487b7160e01b600052601160045260246000fd5b600781810b9083900b01677fffffffffffffff8113677fffffffffffffff198212171561016c5761016c610370565b600782810b9082900b03677fffffffffffffff198112677fffffffffffffff8213171561016c5761016c61037056fea2646970667358221220fe2c18209148915da3b1f817f83e3f5b393f87d61ee5ad636761b3c60653fc5864736f6c63430008140033",
  "linkReferences": {},
  "deployedLinkReferences": {}
}