{"AtomicSwap.sol":{"AtomicSwap":{"abi":[{"inputs":[{"internalType":"address","name":"_reputationRegistry","type":"address"}],"stateMutability":"nonpayable","type":"constructor"},{"inputs":[{"internalType":"int64","name":"code","type":"int64"}],"name":"HTSAssociateFailed","type":"error"},{"inputs":[{"internalType":"int64","name":"code","type":"int64"}],"name":"HTSTransferFailed","type":"error"},{"inputs":[{"internalType":"uint256","name":"sent","type":"uint256"},{"internalType":"uint256","name":"required","type":"uint256"}],"name":"InsufficientHBARDeposit","type":"error"},{"inputs":[{"internalType":"address","name":"caller","type":"address"}],"name":"OnlyCounterParty","type":"error"},{"inputs":[],"name":"ReputationCallFailed","type":"error"},{"inputs":[{"internalType":"bytes32","name":"tradeId","type":"bytes32"}],"name":"TradeAlreadyExists","type":"error"},{"inputs":[{"internalType":"bytes32","name":"tradeId","type":"bytes32"},{"internalType":"uint256","name":"deadline","type":"uint256"}],"name":"TradeExpired","type":"error"},{"inputs":[{"internalType":"bytes32","name":"tradeId","type":"bytes32"}],"name":"TradeNotFound","type":"error"},{"inputs":[{"internalType":"bytes32","name":"tradeId","type":"bytes32"}],"name":"TradeNotOpen","type":"error"},{"inputs":[],"name":"WithdrawFailed","type":"error"},{"anonymous":false,"inputs":[{"indexed":true,"internalType":"bytes32","name":"tradeId","type":"bytes32"},{"indexed":true,"internalType":"address","name":"cancelledBy","type":"address"}],"name":"TradeCancelled","type":"event"},{"anonymous":false,"inputs":[{"indexed":true,"internalType":"bytes32","name":"tradeId","type":"bytes32"},{"indexed":true,"internalType":"address","name":"marketAgent","type":"address"},{"indexed":true,"internalType":"address","name":"user","type":"address"},{"indexed":false,"internalType":"string","name":"settlementNote","type":"string"}],"name":"TradeExecuted","type":"event"},{"anonymous":false,"inputs":[{"indexed":true,"internalType":"bytes32","name":"tradeId","type":"bytes32"},{"indexed":true,"internalType":"address","name":"marketAgent","type":"address"},{"indexed":true,"internalType":"address","name":"user","type":"address"},{"indexed":false,"internalType":"address","name":"htsToken","type":"address"},{"indexed":false,"internalType":"int64","name":"tokenAmount","type":"int64"},{"indexed":false,"internalType":"uint256","name":"hbarAmountTinybars","type":"uint256"},{"indexed":false,"internalType":"uint256","name":"deadline","type":"uint256"}],"name":"TradeInitiated","type":"event"},{"inputs":[{"internalType":"bytes32","name":"tradeId","type":"bytes32"}],"name":"cancelTrade","outputs":[],"stateMutability":"nonpayable","type":"function"},{"inputs":[{"internalType":"bytes32","name":"tradeId","type":"bytes32"}],"name":"executeTrade","outputs":[],"stateMutability":"nonpayable","type":"function"},{"inputs":[{"internalType":"bytes32","name":"tradeId","type":"bytes32"}],"name":"getTrade","outputs":[{"components":[{"internalType":"address","name":"marketAgent","type":"address"},{"internalType":"address","name":"user","type":"address"},{"internalType":"address","name":"htsToken","type":"address"},{"internalType":"int64","name":"tokenAmount","type":"int64"},{"internalType":"uint256","name":"hbarAmountTinybars","type":"uint256"},{"internalType":"uint256","name":"deadline","type":"uint256"},{"internalType":"enum AtomicSwap.TradeState","name":"state","type":"uint8"}],"internalType":"struct AtomicSwap.Trade","name":"","type":"tuple"}],"stateMutability":"view","type":"function"},{"inputs":[{"internalType":"bytes32","name":"tradeId","type":"bytes32"},{"internalType":"address","name":"user","type":"address"},{"internalType":"address","name":"htsToken","type":"address"},{"internalType":"int64","name":"tokenAmount","type":"int64"},{"internalType":"uint256","name":"hbarAmountTinybars","type":"uint256"},{"internalType":"uint256","name":"ttlSeconds","type":"uint256"}],"name":"initiateTrade","outputs":[],"stateMutability":"payable","type":"function"},{"inputs":[],"name":"reputationRegistry","outputs":[{"internalType":"contract IERC8004Reputation","name":"","type":"address"}],"stateMutability":"view","type":"function"},{"stateMutability":"payable","type":"receive"}],"evm":{"bytecode":{"linkReferences":{},"object":"60a060405234801561001057600080fd5b50604051610d8b380380610d8b83398101604081905261002f91610040565b6001600160a01b0316608052610070565b60006020828403121561005257600080fd5b81516001600160a01b038116811461006957600080fd5b9392505050565b608051610cfa6100916000396000818160d701526109ae0152610cfa6000f3fe60806040526004361061004e5760003560e01c806344abe45d1461005a5780637cfb41b81461006f578063a3b137991461008f578063c8db44e3146100c5578063e04e23d21461011157600080fd5b3661005557005b600080fd5b61006d610068366004610b6a565b610131565b005b34801561007b57600080fd5b5061006d61008a366004610bcb565b6103e2565b34801561009b57600080fd5b506100af6100aa366004610bcb565b610553565b6040516100bc9190610bfa565b60405180910390f35b3480156100d157600080fd5b506100f97f000000000000000000000000000000000000000000000000000000000000000081565b6040516001600160a01b0390911681526020016100bc565b34801561011d57600080fd5b5061006d61012c366004610bcb565b610636565b6000868152602081905260409020546001600160a01b03161561016f57604051637930bc1f60e01b8152600481018790526024015b60405180910390fd5b81341461019857604051635d11dabf60e01b815234600482015260248101839052604401610166565b60405163248a35ef60e11b81523060048201526001600160a01b03851660248201526101679060009082906349146bde906044016020604051808303816000875af11580156101eb573d6000803e3d6000fd5b505050506040513d601f19601f8201168201806040525081019061020f9190610c79565b9050600781900b60161480159061022b57508060070b61016a14155b1561024f57604051630c05f92560e01b8152600782900b6004820152602401610166565b6040518060e00160405280336001600160a01b03168152602001886001600160a01b03168152602001876001600160a01b031681526020018660070b815260200185815260200184426102a29190610c9d565b81526020016000905260008981526020818152604091829020835181546001600160a01b039182166001600160a01b0319918216178355928501516001808401805492841692909516919091179093559284015160028083018054606088015167ffffffffffffffff16600160a01b026001600160e01b031990911693909616929092179490941790556080840151600382015560a0840151600482015560c084015160058201805492949193909260ff191691849081111561036757610367610be4565b021790555050506001600160a01b03871633897f473900c2af500f799b7aa749bd4617581fb824f95243fd53c04af6e031a731558989896103a88a42610c9d565b604080516001600160a01b03909516855260079390930b602085015291830152606082015260800160405180910390a45050505050505050565b600081815260208190526040902080546001600160a01b031661041b57604051634c11756560e01b815260048101839052602401610166565b6000600582015460ff16600281111561043657610436610be4565b146104575760405163d6eb984160e01b815260048101839052602401610166565b805460048201546001600160a01b039091163314904211811582610479575080155b1561049957604051637a0b9e7f60e11b8152336004820152602401610166565b60058301805460ff19166002179055825460038401546040516000926001600160a01b031691908381818185875af1925050503d80600081146104f8576040519150601f19603f3d011682016040523d82523d6000602084013e6104fd565b606091505b505090508061051f57604051631d42c86760e21b815260040160405180910390fd5b604051339086907f37bea1bad72947bbe287e44f80432b090eef483a8ae55f2bca77cd212beb54c990600090a35050505050565b6105906040805160e081018252600080825260208201819052918101829052606081018290526080810182905260a081018290529060c082015290565b60008281526020818152604091829020825160e08101845281546001600160a01b039081168252600183015481169382019390935260028083015493841694820194909452600160a01b90920460070b606083015260038101546080830152600481015460a083015260058101549192909160c084019160ff9091169081111561061c5761061c610be4565b600281111561062d5761062d610be4565b90525092915050565b600081815260208190526040902080546001600160a01b031661066f57604051634c11756560e01b815260048101839052602401610166565b6000600582015460ff16600281111561068a5761068a610be4565b146106ab5760405163d6eb984160e01b815260048101839052602401610166565b60018101546001600160a01b031633146106da57604051637a0b9e7f60e11b8152336004820152602401610166565b806004015442111561070c57600480820154604051630213e98d60e31b81529182018490526024820152604401610166565b60058101805460ff1916600190811790915560028201549082015460405163eca3691760e01b81526001600160a01b0380841660048301529091166024820152306044820152600160a01b90910460070b606482015261016790600090829063eca36917906084016020604051808303816000875af1158015610793573d6000803e3d6000fd5b505050506040513d601f19601f820116820180604052508101906107b79190610c79565b9050600781900b6016146107e45760405163dfb08d9d60e01b8152600782900b6004820152602401610166565b6002830154835460405163eca3691760e01b81526001600160a01b0380841660048301523060248301529182166044820152600160a01b90920460070b60648301526000919084169063eca36917906084016020604051808303816000875af1158015610855573d6000803e3d6000fd5b505050506040513d601f19601f820116820180604052508101906108799190610c79565b9050600781900b6016146108a65760405163dfb08d9d60e01b8152600782900b6004820152602401610166565b600184015460038501546040516000926001600160a01b031691908381818185875af1925050503d80600081146108f9576040519150601f19603f3d011682016040523d82523d6000602084013e6108fe565b606091505b505090508061092057604051631d42c86760e21b815260040160405180910390fd5b8454600186015460408051602081018a90526bffffffffffffffffffffffff19606094851b8116928201929092529190921b909116605482015242606882015260009060880160408051808303601f19018152908290528051602090910120875463a99c2d0160e01b83526001600160a01b03908116600484015260016024840152604483018290529092507f0000000000000000000000000000000000000000000000000000000000000000169063a99c2d0190606401600060405180830381600087803b1580156109f257600080fd5b505af1925050508015610a03575060015b610ac457600186015486546040516001600160a01b0392831692919091169089907fe5859fd8707132f0378bfe6e017d45c532feb8a381e5ed44fd6e84a6b60eccea90610ab39060208082526043908201527f536574746c6564202d2072657075746174696f6e20726567697374727920757060408201527f6461746520736b697070656420286167656e74206e6f7420726567697374657260608201526265642960e81b608082015260a00190565b60405180910390a450505050505050565b600186015486546040516001600160a01b0392831692919091169089907fe5859fd8707132f0378bfe6e017d45c532feb8a381e5ed44fd6e84a6b60eccea90610ab3906020808252818101527f536574746c6564202d2072657075746174696f6e20696e6372656d656e746564604082015260600190565b80356001600160a01b0381168114610b5357600080fd5b919050565b8060070b8114610b6757600080fd5b50565b60008060008060008060c08789031215610b8357600080fd5b86359550610b9360208801610b3c565b9450610ba160408801610b3c565b93506060870135610bb181610b58565b9598949750929560808101359460a0909101359350915050565b600060208284031215610bdd57600080fd5b5035919050565b634e487b7160e01b600052602160045260246000fd5b600060e08201905060018060a01b0380845116835280602085015116602084015280604085015116604084015250606083015160070b60608301526080830151608083015260a083015160a083015260c083015160038110610c6c57634e487b7160e01b600052602160045260246000fd5b8060c08401525092915050565b600060208284031215610c8b57600080fd5b8151610c9681610b58565b9392505050565b80820180821115610cbe57634e487b7160e01b600052601160045260246000fd5b9291505056fea264697066735822122016d564f6f4366161c54e2b68cc4754c00fa2172dcafac537015e5fff5f4499ce64736f6c63430008140033","opcodes":"PUSH1 0xA0 PUSH1 0x40 MSTORE CALLVALUE DUP1 ISZERO PUSH2 0x10 JUMPI PUSH1 0x0 DUP1 REVERT JUMPDEST POP PUSH1 0x40 MLOAD PUSH2 0xD8B CODESIZE SUB DUP1 PUSH2 0xD8B DUP4 CODECOPY DUP2 ADD PUSH1 0x40 DUP2 SWAP1 MSTORE PUSH2 0x2F SWAP2 PUSH2 0x40 JUMP JUMPDEST PUSH1 0x1 PUSH1 0x1 PUSH1 0xA0 SHL SUB AND PUSH1 0x80 MSTORE PUSH2 0x70 JUMP JUMPDEST PUSH1 0x0 PUSH1 0x20 DUP3 DUP5 SUB SLT ISZERO PUSH2 0x52 JUMPI PUSH1 0x0 DUP1 REVERT JUMPDEST DUP2 MLOAD PUSH1 0x1 PUSH1 0x1 PUSH1 0xA0 SHL SUB DUP2 AND DUP2 EQ PUSH2 0x69 JUMPI PUSH1 0x0 DUP1 REVERT JUMPDEST SWAP4 SWAP3 POP POP POP JUMP JUMPDEST PUSH1 0x80 MLOAD PUSH2 0xCFA PUSH2 0x91 PUSH1 0x0 CODECOPY PUSH1 0x0 DUP2 DUP2 PUSH1 0xD7 ADD MSTORE PUSH2 0x9AE ADD MSTORE PUSH2 0xCFA PUSH1 0x0 RETURN INVALID PUSH1 0x80 PUSH1 0x40 MSTORE PUSH1 0x4 CALLDATASIZE LT PUSH2 0x4E JUMPI PUSH1 0x0 CALLDATALOAD PUSH1 0xE0 SHR DUP1 PUSH4 0x44ABE45D EQ PUSH2 0x5A JUMPI DUP1 PUSH4 0x7CFB41B8 EQ PUSH2 0x6F JUMPI DUP1 PUSH4 0xA3B13799 EQ PUSH2 0x8F JUMPI DUP1 PUSH4 0xC8DB44E3 EQ PUSH2 0xC5 JUMPI DUP1 PUSH4 0xE04E23D2 EQ PUSH2 0x111 JUMPI PUSH1 0x0 DUP1 REVERT JUMPDEST CALLDATASIZE PUSH2 0x55 JUMPI STOP JUMPDEST PUSH1 0x0 DUP1 REVERT JUMPDEST PUSH2 0x6D PUSH2 0x68 CALLDATASIZE PUSH1 0x4 PUSH2 0xB6A JUMP JUMPDEST PUSH2 0x131 JUMP JUMPDEST STOP JUMPDEST CALLVALUE DUP1 ISZERO PUSH2 0x7B JUMPI PUSH1 0x0 DUP1 REVERT JUMPDEST POP PUSH2 0x6D PUSH2 0x8A CALLDATASIZE PUSH1 0x4 PUSH2 0xBCB JUMP JUMPDEST PUSH2 0x3E2 JUMP JUMPDEST CALLVALUE DUP1 ISZERO PUSH2 0x9B JUMPI PUSH1 0x0 DUP1 REVERT JUMPDEST POP PUSH2 0xAF PUSH2 0xAA CALLDATASIZE PUSH1 0x4 PUSH2 0xBCB JUMP JUMPDEST PUSH2 0x553 JUMP JUMPDEST PUSH1 0x40 MLOAD PUSH2 0xBC SWAP2 SWAP1 PUSH2 0xBFA JUMP JUMPDEST PUSH1 0x40 MLOAD DUP1 SWAP2 SUB SWAP1 RETURN JUMPDEST CALLVALUE DUP1 ISZERO PUSH2 0xD1 JUMPI PUSH1 0x0 DUP1 REVERT JUMPDEST POP PUSH2 0xF9 PUSH32 0x0 DUP2 JUMP JUMPDEST PUSH1 0x40 MLOAD PUSH1 0x1 PUSH1 0x1 PUSH1 0xA0 SHL SUB SWAP1 SWAP2 AND DUP2 MSTORE PUSH1 0x20 ADD PUSH2 0xBC JUMP JUMPDEST CALLVALUE DUP1 ISZERO PUSH2 0x11D JUMPI PUSH1 0x0 DUP1 REVERT JUMPDEST POP PUSH2 0x6D PUSH2 0x12C CALLDATASIZE PUSH1 0x4 PUSH2 0xBCB JUMP JUMPDEST PUSH2 0x636 JUMP JUMPDEST PUSH1 0x0 DUP7 DUP2 MSTORE PUSH1 0x20 DUP2 SWAP1 MSTORE PUSH1 0x40 SWAP1 KECCAK256 SLOAD PUSH1 0x1 PUSH1 0x1 PUSH1 0xA0 SHL SUB AND ISZERO PUSH2 0x16F JUMPI PUSH1 0x40 MLOAD PUSH4 0x7930BC1F PUSH1 0xE0 SHL DUP2 MSTORE PUSH1 0x4 DUP2 ADD DUP8 SWAP1 MSTORE PUSH1 0x24 ADD JUMPDEST PUSH1 0x40 MLOAD DUP1 SWAP2 SUB SWAP1 REVERT JUMPDEST DUP2 CALLVALUE EQ PUSH2 0x198 JUMPI PUSH1 0x40 MLOAD PUSH4 0x5D11DABF PUSH1 0xE0 SHL DUP2 MSTORE CALLVALUE PUSH1 0x4 DUP3 ADD MSTORE PUSH1 0x24 DUP2 ADD DUP4 SWAP1 MSTORE PUSH1 0x44 ADD PUSH2 0x166 JUMP JUMPDEST PUSH1 0x40 MLOAD PUSH4 0x248A35EF PUSH1 0xE1 SHL DUP2 MSTORE ADDRESS PUSH1 0x4 DUP3 ADD MSTORE PUSH1 0x1 PUSH1 0x1 PUSH1 0xA0 SHL SUB DUP6 AND PUSH1 0x24 DUP3 ADD MSTORE PUSH2 0x167 SWAP1 PUSH1 0x0 SWAP1 DUP3 SWAP1 PUSH4 0x49146BDE SWAP1 PUSH1 0x44 ADD PUSH1 0x20 PUSH1 0x40 MLOAD DUP1 DUP4 SUB DUP2 PUSH1 0x0 DUP8 GAS CALL ISZERO DUP1 ISZERO PUSH2 0x1EB JUMPI RETURNDATASIZE PUSH1 0x0 DUP1 RETURNDATACOPY RETURNDATASIZE PUSH1 0x0 REVERT JUMPDEST POP POP POP POP PUSH1 0x40 MLOAD RETURNDATASIZE PUSH1 0x1F NOT PUSH1 0x1F DUP3 ADD AND DUP3 ADD DUP1 PUSH1 0x40 MSTORE POP DUP2 ADD SWAP1 PUSH2 0x20F SWAP2 SWAP1 PUSH2 0xC79 JUMP JUMPDEST SWAP1 POP PUSH1 0x7 DUP2 SWAP1 SIGNEXTEND PUSH1 0x16 EQ DUP1 ISZERO SWAP1 PUSH2 0x22B JUMPI POP DUP1 PUSH1 0x7 SIGNEXTEND PUSH2 0x16A EQ ISZERO JUMPDEST ISZERO PUSH2 0x24F JUMPI PUSH1 0x40 MLOAD PUSH4 0xC05F925 PUSH1 0xE0 SHL DUP2 MSTORE PUSH1 0x7 DUP3 SWAP1 SIGNEXTEND PUSH1 0x4 DUP3 ADD MSTORE PUSH1 0x24 ADD PUSH2 0x166 JUMP JUMPDEST PUSH1 0x40 MLOAD DUP1 PUSH1 0xE0 ADD PUSH1 0x40 MSTORE DUP1 CALLER PUSH1 0x1 PUSH1 0x1 PUSH1 0xA0 SHL SUB AND DUP2 MSTORE PUSH1 0x20 ADD DUP9 PUSH1 0x1 PUSH1 0x1 PUSH1 0xA0 SHL SUB AND DUP2 MSTORE PUSH1 0x20 ADD DUP8 PUSH1 0x1 PUSH1 0x1 PUSH1 0xA0 SHL SUB AND DUP2 MSTORE PUSH1 0x20 ADD DUP7 PUSH1 0x7 SIGNEXTEND DUP2 MSTORE PUSH1 0x20 ADD DUP6 DUP2 MSTORE PUSH1 0x20 ADD DUP5 TIMESTAMP PUSH2 0x2A2 SWAP2 SWAP1 PUSH2 0xC9D JUMP JUMPDEST DUP2 MSTORE PUSH1 0x20 ADD PUSH1 0x0 SWAP1 MSTORE PUSH1 0x0 DUP10 DUP2 MSTORE PUSH1 0x20 DUP2 DUP2 MSTORE PUSH1 0x40 SWAP2 DUP3 SWAP1 KECCAK256 DUP4 MLOAD DUP2 SLOAD PUSH1 0x1 PUSH1 0x1 PUSH1 0xA0 SHL SUB SWAP2 DUP3 AND PUSH1 0x1 PUSH1 0x1 PUSH1 0xA0 SHL SUB NOT SWAP2 DUP3 AND OR DUP4 SSTORE SWAP3 DUP6 ADD MLOAD PUSH1 0x1 DUP1 DUP5 ADD DUP1 SLOAD SWAP3 DUP5 AND SWAP3 SWAP1 SWAP6 AND SWAP2 SWAP1 SWAP2 OR SWAP1 SWAP4 SSTORE SWAP3 DUP5 ADD MLOAD PUSH1 0x2 DUP1 DUP4 ADD DUP1 SLOAD PUSH1 0x60 DUP9 ADD MLOAD PUSH8 0xFFFFFFFFFFFFFFFF AND PUSH1 0x1 PUSH1 0xA0 SHL MUL PUSH1 0x1 PUSH1 0x1 PUSH1 0xE0 SHL SUB NOT SWAP1 SWAP2 AND SWAP4 SWAP1 SWAP7 AND SWAP3 SWAP1 SWAP3 OR SWAP5 SWAP1 SWAP5 OR SWAP1 SSTORE PUSH1 0x80 DUP5 ADD MLOAD PUSH1 0x3 DUP3 ADD SSTORE PUSH1 0xA0 DUP5 ADD MLOAD PUSH1 0x4 DUP3 ADD SSTORE PUSH1 0xC0 DUP5 ADD MLOAD PUSH1 0x5 DUP3 ADD DUP1 SLOAD SWAP3 SWAP5 SWAP2 SWAP4 SWAP1 SWAP3 PUSH1 0xFF NOT AND SWAP2 DUP5 SWAP1 DUP2 GT ISZERO PUSH2 0x367 JUMPI PUSH2 0x367 PUSH2 0xBE4 JUMP JUMPDEST MUL OR SWAP1 SSTORE POP POP POP PUSH1 0x1 PUSH1 0x1 PUSH1 0xA0 SHL SUB DUP8 AND CALLER DUP10 PUSH32 0x473900C2AF500F799B7AA749BD4617581FB824F95243FD53C04AF6E031A73155 DUP10 DUP10 DUP10 PUSH2 0x3A8 DUP11 TIMESTAMP PUSH2 0xC9D JUMP JUMPDEST PUSH1 0x40 DUP1 MLOAD PUSH1 0x1 PUSH1 0x1 PUSH1 0xA0 SHL SUB SWAP1 SWAP6 AND DUP6 MSTORE PUSH1 0x7 SWAP4 SWAP1 SWAP4 SIGNEXTEND PUSH1 0x20 DUP6 ADD MSTORE SWAP2 DUP4 ADD MSTORE PUSH1 0x60 DUP3 ADD MSTORE PUSH1 0x80 ADD PUSH1 0x40 MLOAD DUP1 SWAP2 SUB SWAP1 LOG4 POP POP POP POP POP POP POP POP JUMP JUMPDEST PUSH1 0x0 DUP2 DUP2 MSTORE PUSH1 0x20 DUP2 SWAP1 MSTORE PUSH1 0x40 SWAP1 KECCAK256 DUP1 SLOAD PUSH1 0x1 PUSH1 0x1 PUSH1 0xA0 SHL SUB AND PUSH2 0x41B JUMPI PUSH1 0x40 MLOAD PUSH4 0x4C117565 PUSH1 0xE0 SHL DUP2 MSTORE PUSH1 0x4 DUP2 ADD DUP4 SWAP1 MSTORE PUSH1 0x24 ADD PUSH2 0x166 JUMP JUMPDEST PUSH1 0x0 PUSH1 0x5 DUP3 ADD SLOAD PUSH1 0xFF AND PUSH1 0x2 DUP2 GT ISZERO PUSH2 0x436 JUMPI PUSH2 0x436 PUSH2 0xBE4 JUMP JUMPDEST EQ PUSH2 0x457 JUMPI PUSH1 0x40 MLOAD PUSH4 0xD6EB9841 PUSH1 0xE0 SHL DUP2 MSTORE PUSH1 0x4 DUP2 ADD DUP4 SWAP1 MSTORE PUSH1 0x24 ADD PUSH2 0x166 JUMP JUMPDEST DUP1 SLOAD PUSH1 0x4 DUP3 ADD SLOAD PUSH1 0x1 PUSH1 0x1 PUSH1 0xA0 SHL SUB SWAP1 SWAP2 AND CALLER EQ SWAP1 TIMESTAMP GT DUP2 ISZERO DUP3 PUSH2 0x479 JUMPI POP DUP1 ISZERO JUMPDEST ISZERO PUSH2 0x499 JUMPI PUSH1 0x40 MLOAD PUSH4 0x7A0B9E7F PUSH1 0xE1 SHL DUP2 MSTORE CALLER PUSH1 0x4 DUP3 ADD MSTORE PUSH1 0x24 ADD PUSH2 0x166 JUMP JUMPDEST PUSH1 0x5 DUP4 ADD DUP1 SLOAD PUSH1 0xFF NOT AND PUSH1 0x2 OR SWAP1 SSTORE DUP3 SLOAD PUSH1 0x3 DUP5 ADD SLOAD PUSH1 0x40 MLOAD PUSH1 0x0 SWAP3 PUSH1 0x1 PUSH1 0x1 PUSH1 0xA0 SHL SUB AND SWAP2 SWAP1 DUP4 DUP2 DUP2 DUP2 DUP6 DUP8 GAS CALL SWAP3 POP POP POP RETURNDATASIZE DUP1 PUSH1 0x0 DUP2 EQ PUSH2 0x4F8 JUMPI PUSH1 0x40 MLOAD SWAP2 POP PUSH1 0x1F NOT PUSH1 0x3F RETURNDATASIZE ADD AND DUP3 ADD PUSH1 0x40 MSTORE RETURNDATASIZE DUP3 MSTORE RETURNDATASIZE PUSH1 0x0 PUSH1 0x20 DUP5 ADD RETURNDATACOPY PUSH2 0x4FD JUMP JUMPDEST PUSH1 0x60 SWAP2 POP JUMPDEST POP POP SWAP1 POP DUP1 PUSH2 0x51F JUMPI PUSH1 0x40 MLOAD PUSH4 0x1D42C867 PUSH1 0xE2 SHL DUP2 MSTORE PUSH1 0x4 ADD PUSH1 0x40 MLOAD DUP1 SWAP2 SUB SWAP1 REVERT JUMPDEST PUSH1 0x40 MLOAD CALLER SWAP1 DUP7 SWAP1 PUSH32 0x37BEA1BAD72947BBE287E44F80432B090EEF483A8AE55F2BCA77CD212BEB54C9 SWAP1 PUSH1 0x0 SWAP1 LOG3 POP POP POP POP POP JUMP JUMPDEST PUSH2 0x590 PUSH1 0x40 DUP1 MLOAD PUSH1 0xE0 DUP2 ADD DUP3 MSTORE PUSH1 0x0 DUP1 DUP3 MSTORE PUSH1 0x20 DUP3 ADD DUP2 SWAP1 MSTORE SWAP2 DUP2 ADD DUP3 SWAP1 MSTORE PUSH1 0x60 DUP2 ADD DUP3 SWAP1 MSTORE PUSH1 0x80 DUP2 ADD DUP3 SWAP1 MSTORE PUSH1 0xA0 DUP2 ADD DUP3 SWAP1 MSTORE SWAP1 PUSH1 0xC0 DUP3 ADD MSTORE SWAP1 JUMP JUMPDEST PUSH1 0x0 DUP3 DUP2 MSTORE PUSH1 0x20 DUP2 DUP2 MSTORE PUSH1 0x40 SWAP2 DUP3 SWAP1 KECCAK256 DUP3 MLOAD PUSH1 0xE0 DUP2 ADD DUP5 MSTORE DUP2 SLOAD PUSH1 0x1 PUSH1 0x1 PUSH1 0xA0 SHL SUB SWAP1 DUP2 AND DUP3 MSTORE PUSH1 0x1 DUP4 ADD SLOAD DUP2 AND SWAP4 DUP3 ADD SWAP4 SWAP1 SWAP4 MSTORE PUSH1 0x2 DUP1 DUP4 ADD SLOAD SWAP4 DUP5 AND SWAP5 DUP3 ADD SWAP5 SWAP1 SWAP5 MSTORE PUSH1 0x1 PUSH1 0xA0 SHL SWAP1 SWAP3 DIV PUSH1 0x7 SIGNEXTEND PUSH1 0x60 DUP4 ADD MSTORE PUSH1 0x3 DUP2 ADD SLOAD PUSH1 0x80 DUP4 ADD MSTORE PUSH1 0x4 DUP2 ADD SLOAD PUSH1 0xA0 DUP4 ADD MSTORE PUSH1 0x5 DUP2 ADD SLOAD SWAP2 SWAP3 SWAP1 SWAP2 PUSH1 0xC0 DUP5 ADD SWAP2 PUSH1 0xFF SWAP1 SWAP2 AND SWAP1 DUP2 GT ISZERO PUSH2 0x61C JUMPI PUSH2 0x61C PUSH2 0xBE4 JUMP JUMPDEST PUSH1 0x2 DUP2 GT ISZERO PUSH2 0x62D JUMPI PUSH2 0x62D PUSH2 0xBE4 JUMP JUMPDEST SWAP1 MSTORE POP SWAP3 SWAP2 POP POP JUMP JUMPDEST PUSH1 0x0 DUP2 DUP2 MSTORE PUSH1 0x20 DUP2 SWAP1 MSTORE PUSH1 0x40 SWAP1 KECCAK256 DUP1 SLOAD PUSH1 0x1 PUSH1 0x1 PUSH1 0xA0 SHL SUB AND PUSH2 0x66F JUMPI PUSH1 0x40 MLOAD PUSH4 0x4C117565 PUSH1 0xE0 SHL DUP2 MSTORE PUSH1 0x4 DUP2 ADD DUP4 SWAP1 MSTORE PUSH1 0x24 ADD PUSH2 0x166 JUMP JUMPDEST PUSH1 0x0 PUSH1 0x5 DUP3 ADD SLOAD PUSH1 0xFF AND PUSH1 0x2 DUP2 GT ISZERO PUSH2 0x68A JUMPI PUSH2 0x68A PUSH2 0xBE4 JUMP JUMPDEST EQ PUSH2 0x6AB JUMPI PUSH1 0x40 MLOAD PUSH4 0xD6EB9841 PUSH1 0xE0 SHL DUP2 MSTORE PUSH1 0x4 DUP2 ADD DUP4 SWAP1 MSTORE PUSH1 0x24 ADD PUSH2 0x166 JUMP JUMPDEST PUSH1 0x1 DUP2 ADD SLOAD PUSH1 0x1 PUSH1 0x1 PUSH1 0xA0 SHL SUB AND CALLER EQ PUSH2 0x6DA JUMPI PUSH1 0x40 MLOAD PUSH4 0x7A0B9E7F PUSH1 0xE1 SHL DUP2 MSTORE CALLER PUSH1 0x4 DUP3 ADD MSTORE PUSH1 0x24 ADD PUSH2 0x166 JUMP JUMPDEST DUP1 PUSH1 0x4 ADD SLOAD TIMESTAMP GT ISZERO PUSH2 0x70C JUMPI PUSH1 0x4 DUP1 DUP3 ADD SLOAD PUSH1 0x40 MLOAD PUSH4 0x213E98D PUSH1 0xE3 SHL DUP2 MSTORE SWAP2 DUP3 ADD DUP5 SWAP1 MSTORE PUSH1 0x24 DUP3 ADD MSTORE PUSH1 0x44 ADD PUSH2 0x166 JUMP JUMPDEST PUSH1 0x5 DUP2 ADD DUP1 SLOAD PUSH1 0xFF NOT AND PUSH1 0x1 SWAP1 DUP2 OR SWAP1 SWAP2 SSTORE PUSH1 0x2 DUP3 ADD SLOAD SWAP1 DUP3 ADD SLOAD PUSH1 0x40 MLOAD PUSH4 0xECA36917 PUSH1 0xE0 SHL DUP2 MSTORE PUSH1 0x1 PUSH1 0x1 PUSH1 0xA0 SHL SUB DUP1 DUP5 AND PUSH1 0x4 DUP4 ADD MSTORE SWAP1 SWAP2 AND PUSH1 0x24 DUP3 ADD MSTORE ADDRESS PUSH1 0x44 DUP3 ADD MSTORE PUSH1 0x1 PUSH1 0xA0 SHL SWAP1 SWAP2 DIV PUSH1 0x7 SIGNEXTEND PUSH1 0x64 DUP3 ADD MSTORE PUSH2 0x167 SWAP1 PUSH1 0x0 SWAP1 DUP3 SWAP1 PUSH4 0xECA36917 SWAP1 PUSH1 0x84 ADD PUSH1 0x20 PUSH1 0x40 MLOAD DUP1 DUP4 SUB DUP2 PUSH1 0x0 DUP8 GAS CALL ISZERO DUP1 ISZERO PUSH2 0x793 JUMPI RETURNDATASIZE PUSH1 0x0 DUP1 RETURNDATACOPY RETURNDATASIZE PUSH1 0x0 REVERT JUMPDEST POP POP POP POP PUSH1 0x40 MLOAD RETURNDATASIZE PUSH1 0x1F NOT PUSH1 0x1F DUP3 ADD AND DUP3 ADD DUP1 PUSH1 0x40 MSTORE POP DUP2 ADD SWAP1 PUSH2 0x7B7 SWAP2 SWAP1 PUSH2 0xC79 JUMP JUMPDEST SWAP1 POP PUSH1 0x7 DUP2 SWAP1 SIGNEXTEND PUSH1 0x16 EQ PUSH2 0x7E4 JUMPI PUSH1 0x40 MLOAD PUSH4 0xDFB08D9D PUSH1 0xE0 SHL DUP2 MSTORE PUSH1 0x7 DUP3 SWAP1 SIGNEXTEND PUSH1 0x4 DUP3 ADD MSTORE PUSH1 0x24 ADD PUSH2 0x166 JUMP JUMPDEST PUSH1 0x2 DUP4 ADD SLOAD DUP4 SLOAD PUSH1 0x40 MLOAD PUSH4 0xECA36917 PUSH1 0xE0 SHL DUP2 MSTORE PUSH1 0x1 PUSH1 0x1 PUSH1 0xA0 SHL SUB DUP1 DUP5 AND PUSH1 0x4 DUP4 ADD MSTORE ADDRESS PUSH1 0x24 DUP4 ADD MSTORE SWAP2 DUP3 AND PUSH1 0x44 DUP3 ADD MSTORE PUSH1 0x1 PUSH1 0xA0 SHL SWAP1 SWAP3 DIV PUSH1 0x7 SIGNEXTEND PUSH1 0x64 DUP4 ADD MSTORE PUSH1 0x0 SWAP2 SWAP1 DUP5 AND SWAP1 PUSH4 0xECA36917 SWAP1 PUSH1 0x84 ADD PUSH1 0x20 PUSH1 0x40 MLOAD DUP1 DUP4 SUB DUP2 PUSH1 0x0 DUP8 GAS CALL ISZERO DUP1 ISZERO PUSH2 0x855 JUMPI RETURNDATASIZE PUSH1 0x0 DUP1 RETURNDATACOPY RETURNDATASIZE PUSH1 0x0 REVERT JUMPDEST POP POP POP POP PUSH1 0x40 MLOAD RETURNDATASIZE PUSH1 0x1F NOT PUSH1 0x1F DUP3 ADD AND DUP3 ADD DUP1 PUSH1 0x40 MSTORE POP DUP2 ADD SWAP1 PUSH2 0x879 SWAP2 SWAP1 PUSH2 0xC79 JUMP JUMPDEST SWAP1 POP PUSH1 0x7 DUP2 SWAP1 SIGNEXTEND PUSH1 0x16 EQ PUSH2 0x8A6 JUMPI PUSH1 0x40 MLOAD PUSH4 0xDFB08D9D PUSH1 0xE0 SHL DUP2 MSTORE PUSH1 0x7 DUP3 SWAP1 SIGNEXTEND PUSH1 0x4 DUP3 ADD MSTORE PUSH1 0x24 ADD PUSH2 0x166 JUMP JUMPDEST PUSH1 0x1 DUP5 ADD SLOAD PUSH1 0x3 DUP6 ADD SLOAD PUSH1 0x40 MLOAD PUSH1 0x0 SWAP3 PUSH1 0x1 PUSH1 0x1 PUSH1 0xA0 SHL SUB AND SWAP2 SWAP1 DUP4 DUP2 DUP2 DUP2 DUP6 DUP8 GAS CALL SWAP3 POP POP POP RETURNDATASIZE DUP1 PUSH1 0x0 DUP2 EQ PUSH2 0x8F9 JUMPI PUSH1 0x40 MLOAD SWAP2 POP PUSH1 0x1F NOT PUSH1 0x3F RETURNDATASIZE ADD AND DUP3 ADD PUSH1 0x40 MSTORE RETURNDATASIZE DUP3 MSTORE RETURNDATASIZE PUSH1 0x0 PUSH1 0x20 DUP5 ADD RETURNDATACOPY PUSH2 0x8FE JUMP JUMPDEST PUSH1 0x60 SWAP2 POP JUMPDEST POP POP SWAP1 POP DUP1 PUSH2 0x920 JUMPI PUSH1 0x40 MLOAD PUSH4 0x1D42C867 PUSH1 0xE2 SHL DUP2 MSTORE PUSH1 0x4 ADD PUSH1 0x40 MLOAD DUP1 SWAP2 SUB SWAP1 REVERT JUMPDEST DUP5 SLOAD PUSH1 0x1 DUP7 ADD SLOAD PUSH1 0x40 DUP1 MLOAD PUSH1 0x20 DUP2 ADD DUP11 SWAP1 MSTORE PUSH12 0xFFFFFFFFFFFFFFFFFFFFFFFF NOT PUSH1 0x60 SWAP5 DUP6 SHL DUP2 AND SWAP3 DUP3 ADD SWAP3 SWAP1 SWAP3 MSTORE SWAP2 SWAP1 SWAP3 SHL SWAP1 SWAP2 AND PUSH1 0x54 DUP3 ADD MSTORE TIMESTAMP PUSH1 0x68 DUP3 ADD MSTORE PUSH1 0x0 SWAP1 PUSH1 0x88 ADD PUSH1 0x40 DUP1 MLOAD DUP1 DUP4 SUB PUSH1 0x1F NOT ADD DUP2 MSTORE SWAP1 DUP3 SWAP1 MSTORE DUP1 MLOAD PUSH1 0x20 SWAP1 SWAP2 ADD KECCAK256 DUP8 SLOAD PUSH4 0xA99C2D01 PUSH1 0xE0 SHL DUP4 MSTORE PUSH1 0x1 PUSH1 0x1 PUSH1 0xA0 SHL SUB SWAP1 DUP2 AND PUSH1 0x4 DUP5 ADD MSTORE PUSH1 0x1 PUSH1 0x24 DUP5 ADD MSTORE PUSH1 0x44 DUP4 ADD DUP3 SWAP1 MSTORE SWAP1 SWAP3 POP PUSH32 0x0 AND SWAP1 PUSH4 0xA99C2D01 SWAP1 PUSH1 0x64 ADD PUSH1 0x0 PUSH1 0x40 MLOAD DUP1 DUP4 SUB DUP2 PUSH1 0x0 DUP8 DUP1 EXTCODESIZE ISZERO DUP1 ISZERO PUSH2 0x9F2 JUMPI PUSH1 0x0 DUP1 REVERT JUMPDEST POP GAS CALL SWAP3 POP POP POP DUP1 ISZERO PUSH2 0xA03 JUMPI POP PUSH1 0x1 JUMPDEST PUSH2 0xAC4 JUMPI PUSH1 0x1 DUP7 ADD SLOAD DUP7 SLOAD PUSH1 0x40 MLOAD PUSH1 0x1 PUSH1 0x1 PUSH1 0xA0 SHL SUB SWAP3 DUP4 AND SWAP3 SWAP2 SWAP1 SWAP2 AND SWAP1 DUP10 SWAP1 PUSH32 0xE5859FD8707132F0378BFE6E017D45C532FEB8A381E5ED44FD6E84A6B60ECCEA SWAP1 PUSH2 0xAB3 SWAP1 PUSH1 0x20 DUP1 DUP3 MSTORE PUSH1 0x43 SWAP1 DUP3 ADD MSTORE PUSH32 0x536574746C6564202D2072657075746174696F6E207265676973747279207570 PUSH1 0x40 DUP3 ADD MSTORE PUSH32 0x6461746520736B697070656420286167656E74206E6F74207265676973746572 PUSH1 0x60 DUP3 ADD MSTORE PUSH3 0x656429 PUSH1 0xE8 SHL PUSH1 0x80 DUP3 ADD MSTORE PUSH1 0xA0 ADD SWAP1 JUMP JUMPDEST PUSH1 0x40 MLOAD DUP1 SWAP2 SUB SWAP1 LOG4 POP POP POP POP POP POP POP JUMP JUMPDEST PUSH1 0x1 DUP7 ADD SLOAD DUP7 SLOAD PUSH1 0x40 MLOAD PUSH1 0x1 PUSH1 0x1 PUSH1 0xA0 SHL SUB SWAP3 DUP4 AND SWAP3 SWAP2 SWAP1 SWAP2 AND SWAP1 DUP10 SWAP1 PUSH32 0xE5859FD8707132F0378BFE6E017D45C532FEB8A381E5ED44FD6E84A6B60ECCEA SWAP1 PUSH2 0xAB3 SWAP1 PUSH1 0x20 DUP1 DUP3 MSTORE DUP2 DUP2 ADD MSTORE PUSH32 0x536574746C6564202D2072657075746174696F6E20696E6372656D656E746564 PUSH1 0x40 DUP3 ADD MSTORE PUSH1 0x60 ADD SWAP1 JUMP JUMPDEST DUP1 CALLDATALOAD PUSH1 0x1 PUSH1 0x1 PUSH1 0xA0 SHL SUB DUP2 AND DUP2 EQ PUSH2 0xB53 JUMPI PUSH1 0x0 DUP1 REVERT JUMPDEST SWAP2 SWAP1 POP JUMP JUMPDEST DUP1 PUSH1 0x7 SIGNEXTEND DUP2 EQ PUSH2 0xB67 JUMPI PUSH1 0x0 DUP1 REVERT JUMPDEST POP JUMP JUMPDEST PUSH1 0x0 DUP1 PUSH1 0x0 DUP1 PUSH1 0x0 DUP1 PUSH1 0xC0 DUP8 DUP10 SUB SLT ISZERO PUSH2 0xB83 JUMPI PUSH1 0x0 DUP1 REVERT JUMPDEST DUP7 CALLDATALOAD SWAP6 POP PUSH2 0xB93 PUSH1 0x20 DUP9 ADD PUSH2 0xB3C JUMP JUMPDEST SWAP5 POP PUSH2 0xBA1 PUSH1 0x40 DUP9 ADD PUSH2 0xB3C JUMP JUMPDEST SWAP4 POP PUSH1 0x60 DUP8 ADD CALLDATALOAD PUSH2 0xBB1 DUP2 PUSH2 0xB58 JUMP JUMPDEST SWAP6 SWAP9 SWAP5 SWAP8 POP SWAP3 SWAP6 PUSH1 0x80 DUP2 ADD CALLDATALOAD SWAP5 PUSH1 0xA0 SWAP1 SWAP2 ADD CALLDATALOAD SWAP4 POP SWAP2 POP POP JUMP JUMPDEST PUSH1 0x0 PUSH1 0x20 DUP3 DUP5 SUB SLT ISZERO PUSH2 0xBDD JUMPI PUSH1 0x0 DUP1 REVERT JUMPDEST POP CALLDATALOAD SWAP2 SWAP1 POP JUMP JUMPDEST PUSH4 0x4E487B71 PUSH1 0xE0 SHL PUSH1 0x0 MSTORE PUSH1 0x21 PUSH1 0x4 MSTORE PUSH1 0x24 PUSH1 0x0 REVERT JUMPDEST PUSH1 0x0 PUSH1 0xE0 DUP3 ADD SWAP1 POP PUSH1 0x1 DUP1 PUSH1 0xA0 SHL SUB DUP1 DUP5 MLOAD AND DUP4 MSTORE DUP1 PUSH1 0x20 DUP6 ADD MLOAD AND PUSH1 0x20 DUP5 ADD MSTORE DUP1 PUSH1 0x40 DUP6 ADD MLOAD AND PUSH1 0x40 DUP5 ADD MSTORE POP PUSH1 0x60 DUP4 ADD MLOAD PUSH1 0x7 SIGNEXTEND PUSH1 0x60 DUP4 ADD MSTORE PUSH1 0x80 DUP4 ADD MLOAD PUSH1 0x80 DUP4 ADD MSTORE PUSH1 0xA0 DUP4 ADD MLOAD PUSH1 0xA0 DUP4 ADD MSTORE PUSH1 0xC0 DUP4 ADD MLOAD PUSH1 0x3 DUP2 LT PUSH2 0xC6C JUMPI PUSH4 0x4E487B71 PUSH1 0xE0 SHL PUSH1 0x0 MSTORE PUSH1 0x21 PUSH1 0x4 MSTORE PUSH1 0x24 PUSH1 0x0 REVERT JUMPDEST DUP1 PUSH1 0xC0 DUP5 ADD MSTORE POP SWAP3 SWAP2 POP POP JUMP JUMPDEST PUSH1 0x0 PUSH1 0x20 DUP3 DUP5 SUB SLT ISZERO PUSH2 0xC8B JUMPI PUSH1 0x0 DUP1 REVERT JUMPDEST DUP2 MLOAD PUSH2 0xC96 DUP2 PUSH2 0xB58 JUMP JUMPDEST SWAP4 SWAP3 POP POP POP JUMP JUMPDEST DUP1 DUP3 ADD DUP1 DUP3 GT ISZERO PUSH2 0xCBE JUMPI PUSH4 0x4E487B71 PUSH1 0xE0 SHL PUSH1 0x0 MSTORE PUSH1 0x11 PUSH1 0x4 MSTORE PUSH1 0x24 PUSH1 0x0 REVERT JUMPDEST SWAP3 SWAP2 POP POP JUMP INVALID LOG2 PUSH5 0x6970667358 0x22 SLT KECCAK256 AND 0xD5 PUSH5 0xF6F4366161 0xC5 0x4E 0x2B PUSH9 0xCC4754C00FA2172DCA STATICCALL 0xC5 CALLDATACOPY ADD 0x5E PUSH0 SELFDESTRUCT PUSH0 PREVRANDAO SWAP10 0xCE PUSH5 0x736F6C6343 STOP ADDMOD EQ STOP CALLER "},"methodIdentifiers":{"cancelTrade(bytes32)":"7cfb41b8","executeTrade(bytes32)":"e04e23d2","getTrade(bytes32)":"a3b13799","initiateTrade(bytes32,address,address,int64,uint256,uint256)":"44abe45d","reputationRegistry()":"c8db44e3"}}}}}