{"ERC8004Registry.sol":{"ERC8004Registry":{"abi":[{"inputs":[],"stateMutability":"nonpayable","type":"constructor"},{"inputs":[{"internalType":"address","name":"agent","type":"address"}],"name":"AlreadyRegistered","type":"error"},{"inputs":[{"internalType":"address","name":"agent","type":"address"}],"name":"NotRegistered","type":"error"},{"inputs":[{"internalType":"address","name":"caller","type":"address"}],"name":"Unauthorized","type":"error"},{"anonymous":false,"inputs":[{"indexed":true,"internalType":"address","name":"agent","type":"address"}],"name":"AgentDeregistered","type":"event"},{"anonymous":false,"inputs":[{"indexed":true,"internalType":"address","name":"agent","type":"address"},{"indexed":false,"internalType":"string","name":"agentType","type":"string"},{"indexed":false,"internalType":"string","name":"metadataURI","type":"string"}],"name":"AgentRegistered","type":"event"},{"anonymous":false,"inputs":[{"indexed":true,"internalType":"address","name":"agent","type":"address"},{"indexed":false,"internalType":"uint256","name":"delta","type":"uint256"},{"indexed":false,"internalType":"uint256","name":"newScore","type":"uint256"},{"indexed":true,"internalType":"bytes32","name":"tradeRef","type":"bytes32"}],"name":"ReputationIncremented","type":"event"},{"inputs":[],"name":"atomicSwapContract","outputs":[{"internalType":"address","name":"","type":"address"}],"stateMutability":"view","type":"function"},{"inputs":[],"name":"deployer","outputs":[{"internalType":"address","name":"","type":"address"}],"stateMutability":"view","type":"function"},{"inputs":[{"internalType":"address","name":"agent","type":"address"}],"name":"deregisterAgent","outputs":[],"stateMutability":"nonpayable","type":"function"},{"inputs":[{"internalType":"address","name":"agent","type":"address"}],"name":"getIdentity","outputs":[{"components":[{"internalType":"bool","name":"active","type":"bool"},{"internalType":"string","name":"agentType","type":"string"},{"internalType":"string","name":"metadataURI","type":"string"},{"internalType":"address","name":"owner","type":"address"},{"internalType":"uint256","name":"registeredAt","type":"uint256"}],"internalType":"struct ERC8004Registry.AgentIdentity","name":"","type":"tuple"}],"stateMutability":"view","type":"function"},{"inputs":[],"name":"getRegisteredAgents","outputs":[{"internalType":"address[]","name":"active","type":"address[]"}],"stateMutability":"view","type":"function"},{"inputs":[{"internalType":"address","name":"agent","type":"address"}],"name":"getReputation","outputs":[{"components":[{"internalType":"uint256","name":"score","type":"uint256"},{"internalType":"uint256","name":"tradeCount","type":"uint256"},{"internalType":"uint256","name":"lastUpdatedAt","type":"uint256"}],"internalType":"struct ERC8004Registry.ReputationRecord","name":"","type":"tuple"}],"stateMutability":"view","type":"function"},{"inputs":[{"internalType":"address","name":"agent","type":"address"},{"internalType":"uint256","name":"delta","type":"uint256"},{"internalType":"bytes32","name":"tradeRef","type":"bytes32"}],"name":"incrementReputation","outputs":[],"stateMutability":"nonpayable","type":"function"},{"inputs":[{"internalType":"address","name":"agent","type":"address"},{"internalType":"string","name":"agentType","type":"string"},{"internalType":"string","name":"metadataURI","type":"string"}],"name":"registerAgent","outputs":[],"stateMutability":"nonpayable","type":"function"},{"inputs":[{"internalType":"address","name":"_atomicSwap","type":"address"}],"name":"setAtomicSwapContract","outputs":[],"stateMutability":"nonpayable","type":"function"}],"evm":{"bytecode":{"linkReferences":{},"object":"60a060405234801561001057600080fd5b5033608052608051610deb6100376000396000818161018501526108ff0152610deb6000f3fe608060405234801561001057600080fd5b50600436106100935760003560e01c80638f6c0f92116100665780638f6c0f92146101125780639c89a0e214610125578063a99c2d011461015a578063ce10aba61461016d578063d5f394881461018057600080fd5b80631f1898c2146100985780632fea7b81146100c85780637216fe48146100e8578063875ff280146100fd575b600080fd5b6003546100ab906001600160a01b031681565b6040516001600160a01b0390911681526020015b60405180910390f35b6100db6100d636600461097d565b6101a7565b6040516100bf91906109e5565b6100fb6100f6366004610a9c565b61035c565b005b610105610541565b6040516100bf9190610b1d565b6100fb61012036600461097d565b6106c9565b61013861013336600461097d565b61077d565b60408051825181526020808401519082015291810151908201526060016100bf565b6100fb610168366004610b6a565b6107e3565b6100fb61017b36600461097d565b6108f4565b6100ab7f000000000000000000000000000000000000000000000000000000000000000081565b6101e46040518060a00160405280600015158152602001606081526020016060815260200160006001600160a01b03168152602001600081525090565b6001600160a01b03821660009081526020818152604091829020825160a08101909352805460ff1615158352600181018054919284019161022490610b9d565b80601f016020809104026020016040519081016040528092919081815260200182805461025090610b9d565b801561029d5780601f106102725761010080835404028352916020019161029d565b820191906000526020600020905b81548152906001019060200180831161028057829003601f168201915b505050505081526020016002820180546102b690610b9d565b80601f01602080910402602001604051908101604052809291908181526020018280546102e290610b9d565b801561032f5780601f106103045761010080835404028352916020019161032f565b820191906000526020600020905b81548152906001019060200180831161031257829003601f168201915b505050918352505060038201546001600160a01b0316602082015260049091015460409091015292915050565b6001600160a01b03851660009081526020819052604090205460ff16156103a6576040516345ed80e960e01b81526001600160a01b03861660048201526024015b60405180910390fd5b6040518060a0016040528060011515815260200185858080601f016020809104026020016040519081016040528093929190818152602001838380828437600092019190915250505090825250604080516020601f8601819004810282018101909252848152918101919085908590819084018382808284376000920182905250938552505033602080850191909152426040948501526001600160a01b038a168352828152929091208351815460ff1916901515178155918301516001830191506104729082610c3c565b50604082015160028201906104879082610c3c565b5060608201516003820180546001600160a01b039283166001600160a01b0319918216179091556080909301516004909201919091556001805480820182556000919091527fb10e2d527612073b26eecdfd717e6a320cf44b4afac2b0732d9fcbe2b7fa0cf60180549188169190921681179091556040517f37b3aaf4f807403887412a5994aa1832eface4a8c15501a3311bf21d3279ea3f90610532908790879087908790610d25565b60405180910390a25050505050565b60606000805b6001548110156105b4576000806001838154811061056757610567610d57565b60009182526020808320909101546001600160a01b0316835282019290925260400190205460ff16156105a2578161059e81610d83565b9250505b806105ac81610d83565b915050610547565b508067ffffffffffffffff8111156105ce576105ce610bd7565b6040519080825280602002602001820160405280156105f7578160200160208202803683370190505b5091506000805b6001548110156106c3576000806001838154811061061e5761061e610d57565b60009182526020808320909101546001600160a01b0316835282019290925260400190205460ff16156106b1576001818154811061065e5761065e610d57565b6000918252602090912001546001600160a01b0316848361067e81610d83565b94508151811061069057610690610d57565b60200260200101906001600160a01b031690816001600160a01b0316815250505b806106bb81610d83565b9150506105fe565b50505090565b6001600160a01b0381166000908152602081905260409020805460ff1661070e5760405163bfc6c33760e01b81526001600160a01b038316600482015260240161039d565b60038101546001600160a01b0316331461073d5760405163472511eb60e11b815233600482015260240161039d565b805460ff191681556040516001600160a01b038316907fcd7d9ced6282be80b75fa747c535d58e02a973ac92b9707cb663514caa62fb8d90600090a25050565b6107a160405180606001604052806000815260200160008152602001600081525090565b506001600160a01b0316600090815260026020818152604092839020835160608101855281548152600182015492810192909252909101549181019190915290565b6003546001600160a01b031633146108105760405163472511eb60e11b815233600482015260240161039d565b6001600160a01b03831660009081526020819052604090205460ff166108545760405163bfc6c33760e01b81526001600160a01b038416600482015260240161039d565b6001600160a01b0383166000908152600260205260408120805490918491839190610880908490610d9c565b90915550506001818101805460009061089a908490610d9c565b9091555050426002820155805460408051858152602081019290925283916001600160a01b038716917f5f68abdc7cc27d2e1e51ece39809dfc08461fac2a00f78c8cb7f02ec1b0fc778910160405180910390a350505050565b336001600160a01b037f0000000000000000000000000000000000000000000000000000000000000000161461093f5760405163472511eb60e11b815233600482015260240161039d565b600380546001600160a01b0319166001600160a01b0392909216919091179055565b80356001600160a01b038116811461097857600080fd5b919050565b60006020828403121561098f57600080fd5b61099882610961565b9392505050565b6000815180845260005b818110156109c5576020818501810151868301820152016109a9565b506000602082860101526020601f19601f83011685010191505092915050565b602081528151151560208201526000602083015160a06040840152610a0d60c084018261099f565b90506040840151601f19848303016060850152610a2a828261099f565b91505060018060a01b036060850151166080840152608084015160a08401528091505092915050565b60008083601f840112610a6557600080fd5b50813567ffffffffffffffff811115610a7d57600080fd5b602083019150836020828501011115610a9557600080fd5b9250929050565b600080600080600060608688031215610ab457600080fd5b610abd86610961565b9450602086013567ffffffffffffffff80821115610ada57600080fd5b610ae689838a01610a53565b90965094506040880135915080821115610aff57600080fd5b50610b0c88828901610a53565b969995985093965092949392505050565b6020808252825182820181905260009190848201906040850190845b81811015610b5e5783516001600160a01b031683529284019291840191600101610b39565b50909695505050505050565b600080600060608486031215610b7f57600080fd5b610b8884610961565b95602085013595506040909401359392505050565b600181811c90821680610bb157607f821691505b602082108103610bd157634e487b7160e01b600052602260045260246000fd5b50919050565b634e487b7160e01b600052604160045260246000fd5b601f821115610c3757600081815260208120601f850160051c81016020861015610c145750805b601f850160051c820191505b81811015610c3357828155600101610c20565b5050505b505050565b815167ffffffffffffffff811115610c5657610c56610bd7565b610c6a81610c648454610b9d565b84610bed565b602080601f831160018114610c9f5760008415610c875750858301515b600019600386901b1c1916600185901b178555610c33565b600085815260208120601f198616915b82811015610cce57888601518255948401946001909101908401610caf565b5085821015610cec5787850151600019600388901b60f8161c191681555b5050505050600190811b01905550565b81835281816020850137506000828201602090810191909152601f909101601f19169091010190565b604081526000610d39604083018688610cfc565b8281036020840152610d4c818587610cfc565b979650505050505050565b634e487b7160e01b600052603260045260246000fd5b634e487b7160e01b600052601160045260246000fd5b600060018201610d9557610d95610d6d565b5060010190565b80820180821115610daf57610daf610d6d565b9291505056fea2646970667358221220965e1ae4e803e1c183597b599e54b6cbe61f06cd04efdf2e53e0bd07f272148064736f6c63430008140033","opcodes":"PUSH1 0xA0 PUSH1 0x40 MSTORE CALLVALUE DUP1 ISZERO PUSH2 0x10 JUMPI PUSH1 0x0 DUP1 REVERT JUMPDEST POP CALLER PUSH1 0x80 MSTORE PUSH1 0x80 MLOAD PUSH2 0xDEB PUSH2 0x37 PUSH1 0x0 CODECOPY PUSH1 0x0 DUP2 DUP2 PUSH2 0x185 ADD MSTORE PUSH2 0x8FF ADD MSTORE PUSH2 0xDEB PUSH1 0x0 RETURN INVALID PUSH1 0x80 PUSH1 0x40 MSTORE CALLVALUE DUP1 ISZERO PUSH2 0x10 JUMPI PUSH1 0x0 DUP1 REVERT JUMPDEST POP PUSH1 0x4 CALLDATASIZE LT PUSH2 0x93 JUMPI PUSH1 0x0 CALLDATALOAD PUSH1 0xE0 SHR DUP1 PUSH4 0x8F6C0F92 GT PUSH2 0x66 JUMPI DUP1 PUSH4 0x8F6C0F92 EQ PUSH2 0x112 JUMPI DUP1 PUSH4 0x9C89A0E2 EQ PUSH2 0x125 JUMPI DUP1 PUSH4 0xA99C2D01 EQ PUSH2 0x15A JUMPI DUP1 PUSH4 0xCE10ABA6 EQ PUSH2 0x16D JUMPI DUP1 PUSH4 0xD5F39488 EQ PUSH2 0x180 JUMPI PUSH1 0x0 DUP1 REVERT JUMPDEST DUP1 PUSH4 0x1F1898C2 EQ PUSH2 0x98 JUMPI DUP1 PUSH4 0x2FEA7B81 EQ PUSH2 0xC8 JUMPI DUP1 PUSH4 0x7216FE48 EQ PUSH2 0xE8 JUMPI DUP1 PUSH4 0x875FF280 EQ PUSH2 0xFD JUMPI JUMPDEST PUSH1 0x0 DUP1 REVERT JUMPDEST PUSH1 0x3 SLOAD PUSH2 0xAB SWAP1 PUSH1 0x1 PUSH1 0x1 PUSH1 0xA0 SHL SUB AND DUP2 JUMP JUMPDEST PUSH1 0x40 MLOAD PUSH1 0x1 PUSH1 0x1 PUSH1 0xA0 SHL SUB SWAP1 SWAP2 AND DUP2 MSTORE PUSH1 0x20 ADD JUMPDEST PUSH1 0x40 MLOAD DUP1 SWAP2 SUB SWAP1 RETURN JUMPDEST PUSH2 0xDB PUSH2 0xD6 CALLDATASIZE PUSH1 0x4 PUSH2 0x97D JUMP JUMPDEST PUSH2 0x1A7 JUMP JUMPDEST PUSH1 0x40 MLOAD PUSH2 0xBF SWAP2 SWAP1 PUSH2 0x9E5 JUMP JUMPDEST PUSH2 0xFB PUSH2 0xF6 CALLDATASIZE PUSH1 0x4 PUSH2 0xA9C JUMP JUMPDEST PUSH2 0x35C JUMP JUMPDEST STOP JUMPDEST PUSH2 0x105 PUSH2 0x541 JUMP JUMPDEST PUSH1 0x40 MLOAD PUSH2 0xBF SWAP2 SWAP1 PUSH2 0xB1D JUMP JUMPDEST PUSH2 0xFB PUSH2 0x120 CALLDATASIZE PUSH1 0x4 PUSH2 0x97D JUMP JUMPDEST PUSH2 0x6C9 JUMP JUMPDEST PUSH2 0x138 PUSH2 0x133 CALLDATASIZE PUSH1 0x4 PUSH2 0x97D JUMP JUMPDEST PUSH2 0x77D JUMP JUMPDEST PUSH1 0x40 DUP1 MLOAD DUP3 MLOAD DUP2 MSTORE PUSH1 0x20 DUP1 DUP5 ADD MLOAD SWAP1 DUP3 ADD MSTORE SWAP2 DUP2 ADD MLOAD SWAP1 DUP3 ADD MSTORE PUSH1 0x60 ADD PUSH2 0xBF JUMP JUMPDEST PUSH2 0xFB PUSH2 0x168 CALLDATASIZE PUSH1 0x4 PUSH2 0xB6A JUMP JUMPDEST PUSH2 0x7E3 JUMP JUMPDEST PUSH2 0xFB PUSH2 0x17B CALLDATASIZE PUSH1 0x4 PUSH2 0x97D JUMP JUMPDEST PUSH2 0x8F4 JUMP JUMPDEST PUSH2 0xAB PUSH32 0x0 DUP2 JUMP JUMPDEST PUSH2 0x1E4 PUSH1 0x40 MLOAD DUP1 PUSH1 0xA0 ADD PUSH1 0x40 MSTORE DUP1 PUSH1 0x0 ISZERO ISZERO DUP2 MSTORE PUSH1 0x20 ADD PUSH1 0x60 DUP2 MSTORE PUSH1 0x20 ADD PUSH1 0x60 DUP2 MSTORE PUSH1 0x20 ADD PUSH1 0x0 PUSH1 0x1 PUSH1 0x1 PUSH1 0xA0 SHL SUB AND DUP2 MSTORE PUSH1 0x20 ADD PUSH1 0x0 DUP2 MSTORE POP SWAP1 JUMP JUMPDEST PUSH1 0x1 PUSH1 0x1 PUSH1 0xA0 SHL SUB DUP3 AND PUSH1 0x0 SWAP1 DUP2 MSTORE PUSH1 0x20 DUP2 DUP2 MSTORE PUSH1 0x40 SWAP2 DUP3 SWAP1 KECCAK256 DUP3 MLOAD PUSH1 0xA0 DUP2 ADD SWAP1 SWAP4 MSTORE DUP1 SLOAD PUSH1 0xFF AND ISZERO ISZERO DUP4 MSTORE PUSH1 0x1 DUP2 ADD DUP1 SLOAD SWAP2 SWAP3 DUP5 ADD SWAP2 PUSH2 0x224 SWAP1 PUSH2 0xB9D JUMP JUMPDEST DUP1 PUSH1 0x1F ADD PUSH1 0x20 DUP1 SWAP2 DIV MUL PUSH1 0x20 ADD PUSH1 0x40 MLOAD SWAP1 DUP2 ADD PUSH1 0x40 MSTORE DUP1 SWAP3 SWAP2 SWAP1 DUP2 DUP2 MSTORE PUSH1 0x20 ADD DUP3 DUP1 SLOAD PUSH2 0x250 SWAP1 PUSH2 0xB9D JUMP JUMPDEST DUP1 ISZERO PUSH2 0x29D JUMPI DUP1 PUSH1 0x1F LT PUSH2 0x272 JUMPI PUSH2 0x100 DUP1 DUP4 SLOAD DIV MUL DUP4 MSTORE SWAP2 PUSH1 0x20 ADD SWAP2 PUSH2 0x29D JUMP JUMPDEST DUP3 ADD SWAP2 SWAP1 PUSH1 0x0 MSTORE PUSH1 0x20 PUSH1 0x0 KECCAK256 SWAP1 JUMPDEST DUP2 SLOAD DUP2 MSTORE SWAP1 PUSH1 0x1 ADD SWAP1 PUSH1 0x20 ADD DUP1 DUP4 GT PUSH2 0x280 JUMPI DUP3 SWAP1 SUB PUSH1 0x1F AND DUP3 ADD SWAP2 JUMPDEST POP POP POP POP POP DUP2 MSTORE PUSH1 0x20 ADD PUSH1 0x2 DUP3 ADD DUP1 SLOAD PUSH2 0x2B6 SWAP1 PUSH2 0xB9D JUMP JUMPDEST DUP1 PUSH1 0x1F ADD PUSH1 0x20 DUP1 SWAP2 DIV MUL PUSH1 0x20 ADD PUSH1 0x40 MLOAD SWAP1 DUP2 ADD PUSH1 0x40 MSTORE DUP1 SWAP3 SWAP2 SWAP1 DUP2 DUP2 MSTORE PUSH1 0x20 ADD DUP3 DUP1 SLOAD PUSH2 0x2E2 SWAP1 PUSH2 0xB9D JUMP JUMPDEST DUP1 ISZERO PUSH2 0x32F JUMPI DUP1 PUSH1 0x1F LT PUSH2 0x304 JUMPI PUSH2 0x100 DUP1 DUP4 SLOAD DIV MUL DUP4 MSTORE SWAP2 PUSH1 0x20 ADD SWAP2 PUSH2 0x32F JUMP JUMPDEST DUP3 ADD SWAP2 SWAP1 PUSH1 0x0 MSTORE PUSH1 0x20 PUSH1 0x0 KECCAK256 SWAP1 JUMPDEST DUP2 SLOAD DUP2 MSTORE SWAP1 PUSH1 0x1 ADD SWAP1 PUSH1 0x20 ADD DUP1 DUP4 GT PUSH2 0x312 JUMPI DUP3 SWAP1 SUB PUSH1 0x1F AND DUP3 ADD SWAP2 JUMPDEST POP POP POP SWAP2 DUP4 MSTORE POP POP PUSH1 0x3 DUP3 ADD SLOAD PUSH1 0x1 PUSH1 0x1 PUSH1 0xA0 SHL SUB AND PUSH1 0x20 DUP3 ADD MSTORE PUSH1 0x4 SWAP1 SWAP2 ADD SLOAD PUSH1 0x40 SWAP1 SWAP2 ADD MSTORE SWAP3 SWAP2 POP POP JUMP JUMPDEST PUSH1 0x1 PUSH1 0x1 PUSH1 0xA0 SHL SUB DUP6 AND PUSH1 0x0 SWAP1 DUP2 MSTORE PUSH1 0x20 DUP2 SWAP1 MSTORE PUSH1 0x40 SWAP1 KECCAK256 SLOAD PUSH1 0xFF AND ISZERO PUSH2 0x3A6 JUMPI PUSH1 0x40 MLOAD PUSH4 0x45ED80E9 PUSH1 0xE0 SHL DUP2 MSTORE PUSH1 0x1 PUSH1 0x1 PUSH1 0xA0 SHL SUB DUP7 AND PUSH1 0x4 DUP3 ADD MSTORE PUSH1 0x24 ADD JUMPDEST PUSH1 0x40 MLOAD DUP1 SWAP2 SUB SWAP1 REVERT JUMPDEST PUSH1 0x40 MLOAD DUP1 PUSH1 0xA0 ADD PUSH1 0x40 MSTORE DUP1 PUSH1 0x1 ISZERO ISZERO DUP2 MSTORE PUSH1 0x20 ADD DUP6 DUP6 DUP1 DUP1 PUSH1 0x1F ADD PUSH1 0x20 DUP1 SWAP2 DIV MUL PUSH1 0x20 ADD PUSH1 0x40 MLOAD SWAP1 DUP2 ADD PUSH1 0x40 MSTORE DUP1 SWAP4 SWAP3 SWAP2 SWAP1 DUP2 DUP2 MSTORE PUSH1 0x20 ADD DUP4 DUP4 DUP1 DUP3 DUP5 CALLDATACOPY PUSH1 0x0 SWAP3 ADD SWAP2 SWAP1 SWAP2 MSTORE POP POP POP SWAP1 DUP3 MSTORE POP PUSH1 0x40 DUP1 MLOAD PUSH1 0x20 PUSH1 0x1F DUP7 ADD DUP2 SWAP1 DIV DUP2 MUL DUP3 ADD DUP2 ADD SWAP1 SWAP3 MSTORE DUP5 DUP2 MSTORE SWAP2 DUP2 ADD SWAP2 SWAP1 DUP6 SWAP1 DUP6 SWAP1 DUP2 SWAP1 DUP5 ADD DUP4 DUP3 DUP1 DUP3 DUP5 CALLDATACOPY PUSH1 0x0 SWAP3 ADD DUP3 SWAP1 MSTORE POP SWAP4 DUP6 MSTORE POP POP CALLER PUSH1 0x20 DUP1 DUP6 ADD SWAP2 SWAP1 SWAP2 MSTORE TIMESTAMP PUSH1 0x40 SWAP5 DUP6 ADD MSTORE PUSH1 0x1 PUSH1 0x1 PUSH1 0xA0 SHL SUB DUP11 AND DUP4 MSTORE DUP3 DUP2 MSTORE SWAP3 SWAP1 SWAP2 KECCAK256 DUP4 MLOAD DUP2 SLOAD PUSH1 0xFF NOT AND SWAP1 ISZERO ISZERO OR DUP2 SSTORE SWAP2 DUP4 ADD MLOAD PUSH1 0x1 DUP4 ADD SWAP2 POP PUSH2 0x472 SWAP1 DUP3 PUSH2 0xC3C JUMP JUMPDEST POP PUSH1 0x40 DUP3 ADD MLOAD PUSH1 0x2 DUP3 ADD SWAP1 PUSH2 0x487 SWAP1 DUP3 PUSH2 0xC3C JUMP JUMPDEST POP PUSH1 0x60 DUP3 ADD MLOAD PUSH1 0x3 DUP3 ADD DUP1 SLOAD PUSH1 0x1 PUSH1 0x1 PUSH1 0xA0 SHL SUB SWAP3 DUP4 AND PUSH1 0x1 PUSH1 0x1 PUSH1 0xA0 SHL SUB NOT SWAP2 DUP3 AND OR SWAP1 SWAP2 SSTORE PUSH1 0x80 SWAP1 SWAP4 ADD MLOAD PUSH1 0x4 SWAP1 SWAP3 ADD SWAP2 SWAP1 SWAP2 SSTORE PUSH1 0x1 DUP1 SLOAD DUP1 DUP3 ADD DUP3 SSTORE PUSH1 0x0 SWAP2 SWAP1 SWAP2 MSTORE PUSH32 0xB10E2D527612073B26EECDFD717E6A320CF44B4AFAC2B0732D9FCBE2B7FA0CF6 ADD DUP1 SLOAD SWAP2 DUP9 AND SWAP2 SWAP1 SWAP3 AND DUP2 OR SWAP1 SWAP2 SSTORE PUSH1 0x40 MLOAD PUSH32 0x37B3AAF4F807403887412A5994AA1832EFACE4A8C15501A3311BF21D3279EA3F SWAP1 PUSH2 0x532 SWAP1 DUP8 SWAP1 DUP8 SWAP1 DUP8 SWAP1 DUP8 SWAP1 PUSH2 0xD25 JUMP JUMPDEST PUSH1 0x40 MLOAD DUP1 SWAP2 SUB SWAP1 LOG2 POP POP POP POP POP JUMP JUMPDEST PUSH1 0x60 PUSH1 0x0 DUP1 JUMPDEST PUSH1 0x1 SLOAD DUP2 LT ISZERO PUSH2 0x5B4 JUMPI PUSH1 0x0 DUP1 PUSH1 0x1 DUP4 DUP2 SLOAD DUP2 LT PUSH2 0x567 JUMPI PUSH2 0x567 PUSH2 0xD57 JUMP JUMPDEST PUSH1 0x0 SWAP2 DUP3 MSTORE PUSH1 0x20 DUP1 DUP4 KECCAK256 SWAP1 SWAP2 ADD SLOAD PUSH1 0x1 PUSH1 0x1 PUSH1 0xA0 SHL SUB AND DUP4 MSTORE DUP3 ADD SWAP3 SWAP1 SWAP3 MSTORE PUSH1 0x40 ADD SWAP1 KECCAK256 SLOAD PUSH1 0xFF AND ISZERO PUSH2 0x5A2 JUMPI DUP2 PUSH2 0x59E DUP2 PUSH2 0xD83 JUMP JUMPDEST SWAP3 POP POP JUMPDEST DUP1 PUSH2 0x5AC DUP2 PUSH2 0xD83 JUMP JUMPDEST SWAP2 POP POP PUSH2 0x547 JUMP JUMPDEST POP DUP1 PUSH8 0xFFFFFFFFFFFFFFFF DUP2 GT ISZERO PUSH2 0x5CE JUMPI PUSH2 0x5CE PUSH2 0xBD7 JUMP JUMPDEST PUSH1 0x40 MLOAD SWAP1 DUP1 DUP3 MSTORE DUP1 PUSH1 0x20 MUL PUSH1 0x20 ADD DUP3 ADD PUSH1 0x40 MSTORE DUP1 ISZERO PUSH2 0x5F7 JUMPI DUP2 PUSH1 0x20 ADD PUSH1 0x20 DUP3 MUL DUP1 CALLDATASIZE DUP4 CALLDATACOPY ADD SWAP1 POP JUMPDEST POP SWAP2 POP PUSH1 0x0 DUP1 JUMPDEST PUSH1 0x1 SLOAD DUP2 LT ISZERO PUSH2 0x6C3 JUMPI PUSH1 0x0 DUP1 PUSH1 0x1 DUP4 DUP2 SLOAD DUP2 LT PUSH2 0x61E JUMPI PUSH2 0x61E PUSH2 0xD57 JUMP JUMPDEST PUSH1 0x0 SWAP2 DUP3 MSTORE PUSH1 0x20 DUP1 DUP4 KECCAK256 SWAP1 SWAP2 ADD SLOAD PUSH1 0x1 PUSH1 0x1 PUSH1 0xA0 SHL SUB AND DUP4 MSTORE DUP3 ADD SWAP3 SWAP1 SWAP3 MSTORE PUSH1 0x40 ADD SWAP1 KECCAK256 SLOAD PUSH1 0xFF AND ISZERO PUSH2 0x6B1 JUMPI PUSH1 0x1 DUP2 DUP2 SLOAD DUP2 LT PUSH2 0x65E JUMPI PUSH2 0x65E PUSH2 0xD57 JUMP JUMPDEST PUSH1 0x0 SWAP2 DUP3 MSTORE PUSH1 0x20 SWAP1 SWAP2 KECCAK256 ADD SLOAD PUSH1 0x1 PUSH1 0x1 PUSH1 0xA0 SHL SUB AND DUP5 DUP4 PUSH2 0x67E DUP2 PUSH2 0xD83 JUMP JUMPDEST SWAP5 POP DUP2 MLOAD DUP2 LT PUSH2 0x690 JUMPI PUSH2 0x690 PUSH2 0xD57 JUMP JUMPDEST PUSH1 0x20 MUL PUSH1 0x20 ADD ADD SWAP1 PUSH1 0x1 PUSH1 0x1 PUSH1 0xA0 SHL SUB AND SWAP1 DUP2 PUSH1 0x1 PUSH1 0x1 PUSH1 0xA0 SHL SUB AND DUP2 MSTORE POP POP JUMPDEST DUP1 PUSH2 0x6BB DUP2 PUSH2 0xD83 JUMP JUMPDEST SWAP2 POP POP PUSH2 0x5FE JUMP JUMPDEST POP POP POP SWAP1 JUMP JUMPDEST PUSH1 0x1 PUSH1 0x1 PUSH1 0xA0 SHL SUB DUP2 AND PUSH1 0x0 SWAP1 DUP2 MSTORE PUSH1 0x20 DUP2 SWAP1 MSTORE PUSH1 0x40 SWAP1 KECCAK256 DUP1 SLOAD PUSH1 0xFF AND PUSH2 0x70E JUMPI PUSH1 0x40 MLOAD PUSH4 0xBFC6C337 PUSH1 0xE0 SHL DUP2 MSTORE PUSH1 0x1 PUSH1 0x1 PUSH1 0xA0 SHL SUB DUP4 AND PUSH1 0x4 DUP3 ADD MSTORE PUSH1 0x24 ADD PUSH2 0x39D JUMP JUMPDEST PUSH1 0x3 DUP2 ADD SLOAD PUSH1 0x1 PUSH1 0x1 PUSH1 0xA0 SHL SUB AND CALLER EQ PUSH2 0x73D JUMPI PUSH1 0x40 MLOAD PUSH4 0x472511EB PUSH1 0xE1 SHL DUP2 MSTORE CALLER PUSH1 0x4 DUP3 ADD MSTORE PUSH1 0x24 ADD PUSH2 0x39D JUMP JUMPDEST DUP1 SLOAD PUSH1 0xFF NOT AND DUP2 SSTORE PUSH1 0x40 MLOAD PUSH1 0x1 PUSH1 0x1 PUSH1 0xA0 SHL SUB DUP4 AND SWAP1 PUSH32 0xCD7D9CED6282BE80B75FA747C535D58E02A973AC92B9707CB663514CAA62FB8D SWAP1 PUSH1 0x0 SWAP1 LOG2 POP POP JUMP JUMPDEST PUSH2 0x7A1 PUSH1 0x40 MLOAD DUP1 PUSH1 0x60 ADD PUSH1 0x40 MSTORE DUP1 PUSH1 0x0 DUP2 MSTORE PUSH1 0x20 ADD PUSH1 0x0 DUP2 MSTORE PUSH1 0x20 ADD PUSH1 0x0 DUP2 MSTORE POP SWAP1 JUMP JUMPDEST POP PUSH1 0x1 PUSH1 0x1 PUSH1 0xA0 SHL SUB AND PUSH1 0x0 SWAP1 DUP2 MSTORE PUSH1 0x2 PUSH1 0x20 DUP2 DUP2 MSTORE PUSH1 0x40 SWAP3 DUP4 SWAP1 KECCAK256 DUP4 MLOAD PUSH1 0x60 DUP2 ADD DUP6 MSTORE DUP2 SLOAD DUP2 MSTORE PUSH1 0x1 DUP3 ADD SLOAD SWAP3 DUP2 ADD SWAP3 SWAP1 SWAP3 MSTORE SWAP1 SWAP2 ADD SLOAD SWAP2 DUP2 ADD SWAP2 SWAP1 SWAP2 MSTORE SWAP1 JUMP JUMPDEST PUSH1 0x3 SLOAD PUSH1 0x1 PUSH1 0x1 PUSH1 0xA0 SHL SUB AND CALLER EQ PUSH2 0x810 JUMPI PUSH1 0x40 MLOAD PUSH4 0x472511EB PUSH1 0xE1 SHL DUP2 MSTORE CALLER PUSH1 0x4 DUP3 ADD MSTORE PUSH1 0x24 ADD PUSH2 0x39D JUMP JUMPDEST PUSH1 0x1 PUSH1 0x1 PUSH1 0xA0 SHL SUB DUP4 AND PUSH1 0x0 SWAP1 DUP2 MSTORE PUSH1 0x20 DUP2 SWAP1 MSTORE PUSH1 0x40 SWAP1 KECCAK256 SLOAD PUSH1 0xFF AND PUSH2 0x854 JUMPI PUSH1 0x40 MLOAD PUSH4 0xBFC6C337 PUSH1 0xE0 SHL DUP2 MSTORE PUSH1 0x1 PUSH1 0x1 PUSH1 0xA0 SHL SUB DUP5 AND PUSH1 0x4 DUP3 ADD MSTORE PUSH1 0x24 ADD PUSH2 0x39D JUMP JUMPDEST PUSH1 0x1 PUSH1 0x1 PUSH1 0xA0 SHL SUB DUP4 AND PUSH1 0x0 SWAP1 DUP2 MSTORE PUSH1 0x2 PUSH1 0x20 MSTORE PUSH1 0x40 DUP2 KECCAK256 DUP1 SLOAD SWAP1 SWAP2 DUP5 SWAP2 DUP4 SWAP2 SWAP1 PUSH2 0x880 SWAP1 DUP5 SWAP1 PUSH2 0xD9C JUMP JUMPDEST SWAP1 SWAP2 SSTORE POP POP PUSH1 0x1 DUP2 DUP2 ADD DUP1 SLOAD PUSH1 0x0 SWAP1 PUSH2 0x89A SWAP1 DUP5 SWAP1 PUSH2 0xD9C JUMP JUMPDEST SWAP1 SWAP2 SSTORE POP POP TIMESTAMP PUSH1 0x2 DUP3 ADD SSTORE DUP1 SLOAD PUSH1 0x40 DUP1 MLOAD DUP6 DUP2 MSTORE PUSH1 0x20 DUP2 ADD SWAP3 SWAP1 SWAP3 MSTORE DUP4 SWAP2 PUSH1 0x1 PUSH1 0x1 PUSH1 0xA0 SHL SUB DUP8 AND SWAP2 PUSH32 0x5F68ABDC7CC27D2E1E51ECE39809DFC08461FAC2A00F78C8CB7F02EC1B0FC778 SWAP2 ADD PUSH1 0x40 MLOAD DUP1 SWAP2 SUB SWAP1 LOG3 POP POP POP POP JUMP JUMPDEST CALLER PUSH1 0x1 PUSH1 0x1 PUSH1 0xA0 SHL SUB PUSH32 0x0 AND EQ PUSH2 0x93F JUMPI PUSH1 0x40 MLOAD PUSH4 0x472511EB PUSH1 0xE1 SHL DUP2 MSTORE CALLER PUSH1 0x4 DUP3 ADD MSTORE PUSH1 0x24 ADD PUSH2 0x39D JUMP JUMPDEST PUSH1 0x3 DUP1 SLOAD PUSH1 0x1 PUSH1 0x1 PUSH1 0xA0 SHL SUB NOT AND PUSH1 0x1 PUSH1 0x1 PUSH1 0xA0 SHL SUB SWAP3 SWAP1 SWAP3 AND SWAP2 SWAP1 SWAP2 OR SWAP1 SSTORE JUMP JUMPDEST DUP1 CALLDATALOAD PUSH1 0x1 PUSH1 0x1 PUSH1 0xA0 SHL SUB DUP2 AND DUP2 EQ PUSH2 0x978 JUMPI PUSH1 0x0 DUP1 REVERT JUMPDEST SWAP2 SWAP1 POP JUMP JUMPDEST PUSH1 0x0 PUSH1 0x20 DUP3 DUP5 SUB SLT ISZERO PUSH2 0x98F JUMPI PUSH1 0x0 DUP1 REVERT JUMPDEST PUSH2 0x998 DUP3 PUSH2 0x961 JUMP JUMPDEST SWAP4 SWAP3 POP POP POP JUMP JUMPDEST PUSH1 0x0 DUP2 MLOAD DUP1 DUP5 MSTORE PUSH1 0x0 JUMPDEST DUP2 DUP2 LT ISZERO PUSH2 0x9C5 JUMPI PUSH1 0x20 DUP2 DUP6 ADD DUP2 ADD MLOAD DUP7 DUP4 ADD DUP3 ADD MSTORE ADD PUSH2 0x9A9 JUMP JUMPDEST POP PUSH1 0x0 PUSH1 0x20 DUP3 DUP7 ADD ADD MSTORE PUSH1 0x20 PUSH1 0x1F NOT PUSH1 0x1F DUP4 ADD AND DUP6 ADD ADD SWAP2 POP POP SWAP3 SWAP2 POP POP JUMP JUMPDEST PUSH1 0x20 DUP2 MSTORE DUP2 MLOAD ISZERO ISZERO PUSH1 0x20 DUP3 ADD MSTORE PUSH1 0x0 PUSH1 0x20 DUP4 ADD MLOAD PUSH1 0xA0 PUSH1 0x40 DUP5 ADD MSTORE PUSH2 0xA0D PUSH1 0xC0 DUP5 ADD DUP3 PUSH2 0x99F JUMP JUMPDEST SWAP1 POP PUSH1 0x40 DUP5 ADD MLOAD PUSH1 0x1F NOT DUP5 DUP4 SUB ADD PUSH1 0x60 DUP6 ADD MSTORE PUSH2 0xA2A DUP3 DUP3 PUSH2 0x99F JUMP JUMPDEST SWAP2 POP POP PUSH1 0x1 DUP1 PUSH1 0xA0 SHL SUB PUSH1 0x60 DUP6 ADD MLOAD AND PUSH1 0x80 DUP5 ADD MSTORE PUSH1 0x80 DUP5 ADD MLOAD PUSH1 0xA0 DUP5 ADD MSTORE DUP1 SWAP2 POP POP SWAP3 SWAP2 POP POP JUMP JUMPDEST PUSH1 0x0 DUP1 DUP4 PUSH1 0x1F DUP5 ADD SLT PUSH2 0xA65 JUMPI PUSH1 0x0 DUP1 REVERT JUMPDEST POP DUP2 CALLDATALOAD PUSH8 0xFFFFFFFFFFFFFFFF DUP2 GT ISZERO PUSH2 0xA7D JUMPI PUSH1 0x0 DUP1 REVERT JUMPDEST PUSH1 0x20 DUP4 ADD SWAP2 POP DUP4 PUSH1 0x20 DUP3 DUP6 ADD ADD GT ISZERO PUSH2 0xA95 JUMPI PUSH1 0x0 DUP1 REVERT JUMPDEST SWAP3 POP SWAP3 SWAP1 POP JUMP JUMPDEST PUSH1 0x0 DUP1 PUSH1 0x0 DUP1 PUSH1 0x0 PUSH1 0x60 DUP7 DUP9 SUB SLT ISZERO PUSH2 0xAB4 JUMPI PUSH1 0x0 DUP1 REVERT JUMPDEST PUSH2 0xABD DUP7 PUSH2 0x961 JUMP JUMPDEST SWAP5 POP PUSH1 0x20 DUP7 ADD CALLDATALOAD PUSH8 0xFFFFFFFFFFFFFFFF DUP1 DUP3 GT ISZERO PUSH2 0xADA JUMPI PUSH1 0x0 DUP1 REVERT JUMPDEST PUSH2 0xAE6 DUP10 DUP4 DUP11 ADD PUSH2 0xA53 JUMP JUMPDEST SWAP1 SWAP7 POP SWAP5 POP PUSH1 0x40 DUP9 ADD CALLDATALOAD SWAP2 POP DUP1 DUP3 GT ISZERO PUSH2 0xAFF JUMPI PUSH1 0x0 DUP1 REVERT JUMPDEST POP PUSH2 0xB0C DUP9 DUP3 DUP10 ADD PUSH2 0xA53 JUMP JUMPDEST SWAP7 SWAP10 SWAP6 SWAP9 POP SWAP4 SWAP7 POP SWAP3 SWAP5 SWAP4 SWAP3 POP POP POP JUMP JUMPDEST PUSH1 0x20 DUP1 DUP3 MSTORE DUP3 MLOAD DUP3 DUP3 ADD DUP2 SWAP1 MSTORE PUSH1 0x0 SWAP2 SWAP1 DUP5 DUP3 ADD SWAP1 PUSH1 0x40 DUP6 ADD SWAP1 DUP5 JUMPDEST DUP2 DUP2 LT ISZERO PUSH2 0xB5E JUMPI DUP4 MLOAD PUSH1 0x1 PUSH1 0x1 PUSH1 0xA0 SHL SUB AND DUP4 MSTORE SWAP3 DUP5 ADD SWAP3 SWAP2 DUP5 ADD SWAP2 PUSH1 0x1 ADD PUSH2 0xB39 JUMP JUMPDEST POP SWAP1 SWAP7 SWAP6 POP POP POP POP POP POP JUMP JUMPDEST PUSH1 0x0 DUP1 PUSH1 0x0 PUSH1 0x60 DUP5 DUP7 SUB SLT ISZERO PUSH2 0xB7F JUMPI PUSH1 0x0 DUP1 REVERT JUMPDEST PUSH2 0xB88 DUP5 PUSH2 0x961 JUMP JUMPDEST SWAP6 PUSH1 0x20 DUP6 ADD CALLDATALOAD SWAP6 POP PUSH1 0x40 SWAP1 SWAP5 ADD CALLDATALOAD SWAP4 SWAP3 POP POP POP JUMP JUMPDEST PUSH1 0x1 DUP2 DUP2 SHR SWAP1 DUP3 AND DUP1 PUSH2 0xBB1 JUMPI PUSH1 0x7F DUP3 AND SWAP2 POP JUMPDEST PUSH1 0x20 DUP3 LT DUP2 SUB PUSH2 0xBD1 JUMPI PUSH4 0x4E487B71 PUSH1 0xE0 SHL PUSH1 0x0 MSTORE PUSH1 0x22 PUSH1 0x4 MSTORE PUSH1 0x24 PUSH1 0x0 REVERT JUMPDEST POP SWAP2 SWAP1 POP JUMP JUMPDEST PUSH4 0x4E487B71 PUSH1 0xE0 SHL PUSH1 0x0 MSTORE PUSH1 0x41 PUSH1 0x4 MSTORE PUSH1 0x24 PUSH1 0x0 REVERT JUMPDEST PUSH1 0x1F DUP3 GT ISZERO PUSH2 0xC37 JUMPI PUSH1 0x0 DUP2 DUP2 MSTORE PUSH1 0x20 DUP2 KECCAK256 PUSH1 0x1F DUP6 ADD PUSH1 0x5 SHR DUP2 ADD PUSH1 0x20 DUP7 LT ISZERO PUSH2 0xC14 JUMPI POP DUP1 JUMPDEST PUSH1 0x1F DUP6 ADD PUSH1 0x5 SHR DUP3 ADD SWAP2 POP JUMPDEST DUP2 DUP2 LT ISZERO PUSH2 0xC33 JUMPI DUP3 DUP2 SSTORE PUSH1 0x1 ADD PUSH2 0xC20 JUMP JUMPDEST POP POP POP JUMPDEST POP POP POP JUMP JUMPDEST DUP2 MLOAD PUSH8 0xFFFFFFFFFFFFFFFF DUP2 GT ISZERO PUSH2 0xC56 JUMPI PUSH2 0xC56 PUSH2 0xBD7 JUMP JUMPDEST PUSH2 0xC6A DUP2 PUSH2 0xC64 DUP5 SLOAD PUSH2 0xB9D JUMP JUMPDEST DUP5 PUSH2 0xBED JUMP JUMPDEST PUSH1 0x20 DUP1 PUSH1 0x1F DUP4 GT PUSH1 0x1 DUP2 EQ PUSH2 0xC9F JUMPI PUSH1 0x0 DUP5 ISZERO PUSH2 0xC87 JUMPI POP DUP6 DUP4 ADD MLOAD JUMPDEST PUSH1 0x0 NOT PUSH1 0x3 DUP7 SWAP1 SHL SHR NOT AND PUSH1 0x1 DUP6 SWAP1 SHL OR DUP6 SSTORE PUSH2 0xC33 JUMP JUMPDEST PUSH1 0x0 DUP6 DUP2 MSTORE PUSH1 0x20 DUP2 KECCAK256 PUSH1 0x1F NOT DUP7 AND SWAP2 JUMPDEST DUP3 DUP2 LT ISZERO PUSH2 0xCCE JUMPI DUP9 DUP7 ADD MLOAD DUP3 SSTORE SWAP5 DUP5 ADD SWAP5 PUSH1 0x1 SWAP1 SWAP2 ADD SWAP1 DUP5 ADD PUSH2 0xCAF JUMP JUMPDEST POP DUP6 DUP3 LT ISZERO PUSH2 0xCEC JUMPI DUP8 DUP6 ADD MLOAD PUSH1 0x0 NOT PUSH1 0x3 DUP9 SWAP1 SHL PUSH1 0xF8 AND SHR NOT AND DUP2 SSTORE JUMPDEST POP POP POP POP POP PUSH1 0x1 SWAP1 DUP2 SHL ADD SWAP1 SSTORE POP JUMP JUMPDEST DUP2 DUP4 MSTORE DUP2 DUP2 PUSH1 0x20 DUP6 ADD CALLDATACOPY POP PUSH1 0x0 DUP3 DUP3 ADD PUSH1 0x20 SWAP1 DUP2 ADD SWAP2 SWAP1 SWAP2 MSTORE PUSH1 0x1F SWAP1 SWAP2 ADD PUSH1 0x1F NOT AND SWAP1 SWAP2 ADD ADD SWAP1 JUMP JUMPDEST PUSH1 0x40 DUP2 MSTORE PUSH1 0x0 PUSH2 0xD39 PUSH1 0x40 DUP4 ADD DUP7 DUP9 PUSH2 0xCFC JUMP JUMPDEST DUP3 DUP2 SUB PUSH1 0x20 DUP5 ADD MSTORE PUSH2 0xD4C DUP2 DUP6 DUP8 PUSH2 0xCFC JUMP JUMPDEST SWAP8 SWAP7 POP POP POP POP POP POP POP JUMP JUMPDEST PUSH4 0x4E487B71 PUSH1 0xE0 SHL PUSH1 0x0 MSTORE PUSH1 0x32 PUSH1 0x4 MSTORE PUSH1 0x24 PUSH1 0x0 REVERT JUMPDEST PUSH4 0x4E487B71 PUSH1 0xE0 SHL PUSH1 0x0 MSTORE PUSH1 0x11 PUSH1 0x4 MSTORE PUSH1 0x24 PUSH1 0x0 REVERT JUMPDEST PUSH1 0x0 PUSH1 0x1 DUP3 ADD PUSH2 0xD95 JUMPI PUSH2 0xD95 PUSH2 0xD6D JUMP JUMPDEST POP PUSH1 0x1 ADD SWAP1 JUMP JUMPDEST DUP1 DUP3 ADD DUP1 DUP3 GT ISZERO PUSH2 0xDAF JUMPI PUSH2 0xDAF PUSH2 0xD6D JUMP JUMPDEST SWAP3 SWAP2 POP POP JUMP INVALID LOG2 PUSH5 0x6970667358 0x22 SLT KECCAK256 SWAP7 0x5E BYTE 0xE4 0xE8 SUB 0xE1 0xC1 DUP4 MSIZE PUSH28 0x599E54B6CBE61F06CD04EFDF2E53E0BD07F272148064736F6C634300 ADDMOD EQ STOP CALLER "},"methodIdentifiers":{"atomicSwapContract()":"1f1898c2","deployer()":"d5f39488","deregisterAgent(address)":"8f6c0f92","getIdentity(address)":"2fea7b81","getRegisteredAgents()":"875ff280","getReputation(address)":"9c89a0e2","incrementReputation(address,uint256,bytes32)":"a99c2d01","registerAgent(address,string,string)":"7216fe48","setAtomicSwapContract(address)":"ce10aba6"}}}}}