{"test/MockHTS.sol":{"MockHTS":{"abi":[{"inputs":[],"name":"INSUFFICIENT_BALANCE","outputs":[{"internalType":"int64","name":"","type":"int64"}],"stateMutability":"view","type":"function"},{"inputs":[],"name":"SUCCESS","outputs":[{"internalType":"int64","name":"","type":"int64"}],"stateMutability":"view","type":"function"},{"inputs":[{"internalType":"address","name":"","type":"address"},{"internalType":"address","name":"","type":"address"}],"name":"associateToken","outputs":[{"internalType":"int64","name":"","type":"int64"}],"stateMutability":"pure","type":"function"},{"inputs":[{"internalType":"address","name":"token","type":"address"},{"internalType":"address","name":"account","type":"address"}],"name":"balanceOf","outputs":[{"internalType":"int64","name":"","type":"int64"}],"stateMutability":"view","type":"function"},{"inputs":[{"internalType":"address","name":"token","type":"address"},{"internalType":"address","name":"account","type":"address"},{"internalType":"int64","name":"amount","type":"int64"}],"name":"mintTo","outputs":[],"stateMutability":"nonpayable","type":"function"},{"inputs":[{"internalType":"address","name":"token","type":"address"},{"internalType":"address","name":"sender","type":"address"},{"internalType":"address","name":"recipient","type":"address"},{"internalType":"int64","name":"amount","type":"int64"}],"name":"transferToken","outputs":[{"internalType":"int64","name":"","type":"int64"}],"stateMutability":"nonpayable","type":"function"}],"evm":{"bytecode":{"linkReferences":{},"object":"608060405234801561001057600080fd5b5061041a806100206000396000f3fe608060405234801561001057600080fd5b50600436106100625760003560e01c806325ef49c71461006757806349146bde1461007c57806350b1f356146100a6578063d0a6d1a6146100ae578063eca36917146100b6578063f7888aec146100c9575b600080fd5b61007a6100753660046102a6565b610103565b005b61008f61008a3660046102e9565b610169565b60405160079190910b815260200160405180910390f35b61008f60a181565b61008f601681565b61008f6100c436600461031c565b610172565b61008f6100d73660046102e9565b6001600160a01b0391821660009081526020818152604080832093909416825291909152205460070b90565b6001600160a01b038084166000908152602081815260408083209386168352929052908120805483929061013b90849060070b610386565b92506101000a81548167ffffffffffffffff021916908360070b67ffffffffffffffff160217905550505050565b60165b92915050565b6001600160a01b03808516600090815260208181526040808320938716835292905290812054600783810b91900b12156101ae575060a1610270565b6001600160a01b03808616600090815260208181526040808320938816835292905290812080548492906101e690849060070b6103b5565b825467ffffffffffffffff9182166101009390930a9283029190920219909116179055506001600160a01b038086166000908152602081815260408083209387168352929052908120805484929061024290849060070b610386565b92506101000a81548167ffffffffffffffff021916908360070b67ffffffffffffffff160217905550601690505b949350505050565b80356001600160a01b038116811461028f57600080fd5b919050565b8035600781900b811461028f57600080fd5b6000806000606084860312156102bb57600080fd5b6102c484610278565b92506102d260208501610278565b91506102e060408501610294565b90509250925092565b600080604083850312156102fc57600080fd5b61030583610278565b915061031360208401610278565b90509250929050565b6000806000806080858703121561033257600080fd5b61033b85610278565b935061034960208601610278565b925061035760408601610278565b915061036560608601610294565b905092959194509250565b634e487b7160e01b600052601160045260246000fd5b600781810b9083900b01677fffffffffffffff8113677fffffffffffffff198212171561016c5761016c610370565b600782810b9082900b03677fffffffffffffff198112677fffffffffffffff8213171561016c5761016c61037056fea2646970667358221220fe2c18209148915da3b1f817f83e3f5b393f87d61ee5ad636761b3c60653fc5864736f6c63430008140033","opcodes":"PUSH1 0x80 PUSH1 0x40 MSTORE CALLVALUE DUP1 ISZERO PUSH2 0x10 JUMPI PUSH1 0x0 DUP1 REVERT JUMPDEST POP PUSH2 0x41A DUP1 PUSH2 0x20 PUSH1 0x0 CODECOPY PUSH1 0x0 RETURN INVALID PUSH1 0x80 PUSH1 0x40 MSTORE CALLVALUE DUP1 ISZERO PUSH2 0x10 JUMPI PUSH1 0x0 DUP1 REVERT JUMPDEST POP PUSH1 0x4 CALLDATASIZE LT PUSH2 0x62 JUMPI PUSH1 0x0 CALLDATALOAD PUSH1 0xE0 SHR DUP1 PUSH4 0x25EF49C7 EQ PUSH2 0x67 JUMPI DUP1 PUSH4 0x49146BDE EQ PUSH2 0x7C JUMPI DUP1 PUSH4 0x50B1F356 EQ PUSH2 0xA6 JUMPI DUP1 PUSH4 0xD0A6D1A6 EQ PUSH2 0xAE JUMPI DUP1 PUSH4 0xECA36917 EQ PUSH2 0xB6 JUMPI DUP1 PUSH4 0xF7888AEC EQ PUSH2 0xC9 JUMPI JUMPDEST PUSH1 0x0 DUP1 REVERT JUMPDEST PUSH2 0x7A PUSH2 0x75 CALLDATASIZE PUSH1 0x4 PUSH2 0x2A6 JUMP JUMPDEST PUSH2 0x103 JUMP JUMPDEST STOP JUMPDEST PUSH2 0x8F PUSH2 0x8A CALLDATASIZE PUSH1 0x4 PUSH2 0x2E9 JUMP JUMPDEST PUSH2 0x169 JUMP JUMPDEST PUSH1 0x40 MLOAD PUSH1 0x7 SWAP2 SWAP1 SWAP2 SIGNEXTEND DUP2 MSTORE PUSH1 0x20 ADD PUSH1 0x40 MLOAD DUP1 SWAP2 SUB SWAP1 RETURN JUMPDEST PUSH2 0x8F PUSH1 0xA1 DUP2 JUMP JUMPDEST PUSH2 0x8F PUSH1 0x16 DUP2 JUMP JUMPDEST PUSH2 0x8F PUSH2 0xC4 CALLDATASIZE PUSH1 0x4 PUSH2 0x31C JUMP JUMPDEST PUSH2 0x172 JUMP JUMPDEST PUSH2 0x8F PUSH2 0xD7 CALLDATASIZE PUSH1 0x4 PUSH2 0x2E9 JUMP JUMPDEST PUSH1 0x1 PUSH1 0x1 PUSH1 0xA0 SHL SUB SWAP2 DUP3 AND PUSH1 0x0 SWAP1 DUP2 MSTORE PUSH1 0x20 DUP2 DUP2 MSTORE PUSH1 0x40 DUP1 DUP4 KECCAK256 SWAP4 SWAP1 SWAP5 AND DUP3 MSTORE SWAP2 SWAP1 SWAP2 MSTORE KECCAK256 SLOAD PUSH1 0x7 SIGNEXTEND SWAP1 JUMP JUMPDEST PUSH1 0x1 PUSH1 0x1 PUSH1 0xA0 SHL SUB DUP1 DUP5 AND PUSH1 0x0 SWAP1 DUP2 MSTORE PUSH1 0x20 DUP2 DUP2 MSTORE PUSH1 0x40 DUP1 DUP4 KECCAK256 SWAP4 DUP7 AND DUP4 MSTORE SWAP3 SWAP1 MSTORE SWAP1 DUP2 KECCAK256 DUP1 SLOAD DUP4 SWAP3 SWAP1 PUSH2 0x13B SWAP1 DUP5 SWAP1 PUSH1 0x7 SIGNEXTEND PUSH2 0x386 JUMP JUMPDEST SWAP3 POP PUSH2 0x100 EXP DUP2 SLOAD DUP2 PUSH8 0xFFFFFFFFFFFFFFFF MUL NOT AND SWAP1 DUP4 PUSH1 0x7 SIGNEXTEND PUSH8 0xFFFFFFFFFFFFFFFF AND MUL OR SWAP1 SSTORE POP POP POP POP JUMP JUMPDEST PUSH1 0x16 JUMPDEST SWAP3 SWAP2 POP POP JUMP JUMPDEST PUSH1 0x1 PUSH1 0x1 PUSH1 0xA0 SHL SUB DUP1 DUP6 AND PUSH1 0x0 SWAP1 DUP2 MSTORE PUSH1 0x20 DUP2 DUP2 MSTORE PUSH1 0x40 DUP1 DUP4 KECCAK256 SWAP4 DUP8 AND DUP4 MSTORE SWAP3 SWAP1 MSTORE SWAP1 DUP2 KECCAK256 SLOAD PUSH1 0x7 DUP4 DUP2 SIGNEXTEND SWAP2 SWAP1 SIGNEXTEND SLT ISZERO PUSH2 0x1AE JUMPI POP PUSH1 0xA1 PUSH2 0x270 JUMP JUMPDEST PUSH1 0x1 PUSH1 0x1 PUSH1 0xA0 SHL SUB DUP1 DUP7 AND PUSH1 0x0 SWAP1 DUP2 MSTORE PUSH1 0x20 DUP2 DUP2 MSTORE PUSH1 0x40 DUP1 DUP4 KECCAK256 SWAP4 DUP9 AND DUP4 MSTORE SWAP3 SWAP1 MSTORE SWAP1 DUP2 KECCAK256 DUP1 SLOAD DUP5 SWAP3 SWAP1 PUSH2 0x1E6 SWAP1 DUP5 SWAP1 PUSH1 0x7 SIGNEXTEND PUSH2 0x3B5 JUMP JUMPDEST DUP3 SLOAD PUSH8 0xFFFFFFFFFFFFFFFF SWAP2 DUP3 AND PUSH2 0x100 SWAP4 SWAP1 SWAP4 EXP SWAP3 DUP4 MUL SWAP2 SWAP1 SWAP3 MUL NOT SWAP1 SWAP2 AND OR SWAP1 SSTORE POP PUSH1 0x1 PUSH1 0x1 PUSH1 0xA0 SHL SUB DUP1 DUP7 AND PUSH1 0x0 SWAP1 DUP2 MSTORE PUSH1 0x20 DUP2 DUP2 MSTORE PUSH1 0x40 DUP1 DUP4 KECCAK256 SWAP4 DUP8 AND DUP4 MSTORE SWAP3 SWAP1 MSTORE SWAP1 DUP2 KECCAK256 DUP1 SLOAD DUP5 SWAP3 SWAP1 PUSH2 0x242 SWAP1 DUP5 SWAP1 PUSH1 0x7 SIGNEXTEND PUSH2 0x386 JUMP JUMPDEST SWAP3 POP PUSH2 0x100 EXP DUP2 SLOAD DUP2 PUSH8 0xFFFFFFFFFFFFFFFF MUL NOT AND SWAP1 DUP4 PUSH1 0x7 SIGNEXTEND PUSH8 0xFFFFFFFFFFFFFFFF AND MUL OR SWAP1 SSTORE POP PUSH1 0x16 SWAP1 POP JUMPDEST SWAP5 SWAP4 POP POP POP POP JUMP JUMPDEST DUP1 CALLDATALOAD PUSH1 0x1 PUSH1 0x1 PUSH1 0xA0 SHL SUB DUP2 AND DUP2 EQ PUSH2 0x28F JUMPI PUSH1 0x0 DUP1 REVERT JUMPDEST SWAP2 SWAP1 POP JUMP JUMPDEST DUP1 CALLDATALOAD PUSH1 0x7 DUP2 SWAP1 SIGNEXTEND DUP2 EQ PUSH2 0x28F JUMPI PUSH1 0x0 DUP1 REVERT JUMPDEST PUSH1 0x0 DUP1 PUSH1 0x0 PUSH1 0x60 DUP5 DUP7 SUB SLT ISZERO PUSH2 0x2BB JUMPI PUSH1 0x0 DUP1 REVERT JUMPDEST PUSH2 0x2C4 DUP5 PUSH2 0x278 JUMP JUMPDEST SWAP3 POP PUSH2 0x2D2 PUSH1 0x20 DUP6 ADD PUSH2 0x278 JUMP JUMPDEST SWAP2 POP PUSH2 0x2E0 PUSH1 0x40 DUP6 ADD PUSH2 0x294 JUMP JUMPDEST SWAP1 POP SWAP3 POP SWAP3 POP SWAP3 JUMP JUMPDEST PUSH1 0x0 DUP1 PUSH1 0x40 DUP4 DUP6 SUB SLT ISZERO PUSH2 0x2FC JUMPI PUSH1 0x0 DUP1 REVERT JUMPDEST PUSH2 0x305 DUP4 PUSH2 0x278 JUMP JUMPDEST SWAP2 POP PUSH2 0x313 PUSH1 0x20 DUP5 ADD PUSH2 0x278 JUMP JUMPDEST SWAP1 POP SWAP3 POP SWAP3 SWAP1 POP JUMP JUMPDEST PUSH1 0x0 DUP1 PUSH1 0x0 DUP1 PUSH1 0x80 DUP6 DUP8 SUB SLT ISZERO PUSH2 0x332 JUMPI PUSH1 0x0 DUP1 REVERT JUMPDEST PUSH2 0x33B DUP6 PUSH2 0x278 JUMP JUMPDEST SWAP4 POP PUSH2 0x349 PUSH1 0x20 DUP7 ADD PUSH2 0x278 JUMP JUMPDEST SWAP3 POP PUSH2 0x357 PUSH1 0x40 DUP7 ADD PUSH2 0x278 JUMP JUMPDEST SWAP2 POP PUSH2 0x365 PUSH1 0x60 DUP7 ADD PUSH2 0x294 JUMP JUMPDEST SWAP1 POP SWAP3 SWAP6 SWAP2 SWAP5 POP SWAP3 POP JUMP JUMPDEST PUSH4 0x4E487B71 PUSH1 0xE0 SHL PUSH1 0x0 MSTORE PUSH1 0x11 PUSH1 0x4 MSTORE PUSH1 0x24 PUSH1 0x0 REVERT JUMPDEST PUSH1 0x7 DUP2 DUP2 SIGNEXTEND SWAP1 DUP4 SWAP1 SIGNEXTEND ADD PUSH8 0x7FFFFFFFFFFFFFFF DUP2 SGT PUSH8 0x7FFFFFFFFFFFFFFF NOT DUP3 SLT OR ISZERO PUSH2 0x16C JUMPI PUSH2 0x16C PUSH2 0x370 JUMP JUMPDEST PUSH1 0x7 DUP3 DUP2 SIGNEXTEND SWAP1 DUP3 SWAP1 SIGNEXTEND SUB PUSH8 0x7FFFFFFFFFFFFFFF NOT DUP2 SLT PUSH8 0x7FFFFFFFFFFFFFFF DUP3 SGT OR ISZERO PUSH2 0x16C JUMPI PUSH2 0x16C PUSH2 0x370 JUMP INVALID LOG2 PUSH5 0x6970667358 0x22 SLT KECCAK256 INVALID 0x2C XOR KECCAK256 SWAP2 BASEFEE SWAP2 0x5D LOG3 0xB1 0xF8 OR 0xF8 RETURNDATACOPY EXTCODEHASH JUMPDEST CODECOPY EXTCODEHASH DUP8 0xD6 0x1E 0xE5 0xAD PUSH4 0x6761B3C6 MOD MSTORE8 0xFC PC PUSH5 0x736F6C6343 STOP ADDMOD EQ STOP CALLER "},"methodIdentifiers":{"INSUFFICIENT_BALANCE()":"50b1f356","SUCCESS()":"d0a6d1a6","associateToken(address,address)":"49146bde","balanceOf(address,address)":"f7888aec","mintTo(address,address,int64)":"25ef49c7","transferToken(address,address,address,int64)":"eca36917"}}}}}