{
  "_format": "hh-sol-artifact-1",
  "contractName": "AtomicSwap",
  "sourceName": "AtomicSwap.sol",
  "abi": [
    {
      "inputs": [
        {
          "internalType": "address",
          "name": "_reputationRegistry",
          "type": "address"
        }
      ],
      "stateMutability": "nonpayable",
      "type": "constructor"
    },
    {
      "inputs": [
        {
          "internalType": "int64",
          "name": "code",
          "type": "int64"
        }
      ],
      "name": "HTSAssociateFailed",
      "type": "error"
    },
    {
      "inputs": [
        {
          "internalType": "int64",
          "name": "code",
          "type": "int64"
        }
      ],
      "name": "HTSTransferFailed",
      "type": "error"
    },
    {
      "inputs": [
        {
          "internalType": "uint256",
          "name": "sent",
          "type": "uint256"
        },
        {
          "internalType": "uint256",
          "name": "required",
          "type": "uint256"
        }
      ],
      "name": "InsufficientHBARDeposit",
      "type": "error"
    },
    {
      "inputs": [
        {
          "internalType": "address",
          "name": "caller",
          "type": "address"
        }
      ],
      "name": "OnlyCounterParty",
      "type": "error"
    },
    {
      "inputs": [],
      "name": "ReputationCallFailed",
      "type": "error"
    },
    {
      "inputs": [
        {
          "internalType": "bytes32",
          "name": "tradeId",
          "type": "bytes32"
        }
      ],
      "name": "TradeAlreadyExists",
      "type": "error"
    },
    {
      "inputs": [
        {
          "internalType": "bytes32",
          "name": "tradeId",
          "type": "bytes32"
        },
        {
          "internalType": "uint256",
          "name": "deadline",
          "type": "uint256"
        }
      ],
      "name": "TradeExpired",
      "type": "error"
    },
    {
      "inputs": [
        {
          "internalType": "bytes32",
          "name": "tradeId",
          "type": "bytes32"
        }
      ],
      "name": "TradeNotFound",
      "type": "error"
    },
    {
      "inputs": [
        {
          "internalType": "bytes32",
          "name": "tradeId",
          "type": "bytes32"
        }
      ],
      "name": "TradeNotOpen",
      "type": "error"
    },
    {
      "inputs": [],
      "name": "WithdrawFailed",
      "type": "error"
    },
    {
      "anonymous": false,
      "inputs": [
        {
          "indexed": true,
          "internalType": "bytes32",
          "name": "tradeId",
          "type": "bytes32"
        },
        {
          "indexed": true,
          "internalType": "address",
          "name": "cancelledBy",
          "type": "address"
        }
      ],
      "name": "TradeCancelled",
      "type": "event"
    },
    {
      "anonymous": false,
      "inputs": [
        {
          "indexed": true,
          "internalType": "bytes32",
          "name": "tradeId",
          "type": "bytes32"
        },
        {
          "indexed": true,
          "internalType": "address",
          "name": "marketAgent",
          "type": "address"
        },
        {
          "indexed": true,
          "internalType": "address",
          "name": "user",
          "type": "address"
        },
        {
          "indexed": false,
          "internalType": "string",
          "name": "settlementNote",
          "type": "string"
        }
      ],
      "name": "TradeExecuted",
      "type": "event"
    },
    {
      "anonymous": false,
      "inputs": [
        {
          "indexed": true,
          "internalType": "bytes32",
          "name": "tradeId",
          "type": "bytes32"
        },
        {
          "indexed": true,
          "internalType": "address",
          "name": "marketAgent",
          "type": "address"
        },
        {
          "indexed": true,
          "internalType": "address",
          "name": "user",
          "type": "address"
        },
        {
          "indexed": false,
          "internalType": "address",
          "name": "htsToken",
          "type": "address"
        },
        {
          "indexed": false,
          "internalType": "int64",
          "name": "tokenAmount",
          "type": "int64"
        },
        {
          "indexed": false,
          "internalType": "uint256",
          "name": "hbarAmountTinybars",
          "type": "uint256"
        },
        {
          "indexed": false,
          "internalType": "uint256",
          "name": "deadline",
          "type": "uint256"
        }
      ],
      "name": "TradeInitiated",
      "type": "event"
    },
    {
      "inputs": [
        {
          "internalType": "bytes32",
          "name": "tradeId",
          "type": "bytes32"
        }
      ],
      "name": "cancelTrade",
      "outputs": [],
      "stateMutability": "nonpayable",
      "type": "function"
    },
    {
      "inputs": [
        {
          "internalType": "bytes32",
          "name": "tradeId",
          "type": "bytes32"
        }
      ],
      "name": "executeTrade",
      "outputs": [],
      "stateMutability": "nonpayable",
      "type": "function"
    },
    {
      "inputs": [
        {
          "internalType": "bytes32",
          "name": "tradeId",
          "type": "bytes32"
        }
      ],
      "name": "getTrade",
      "outputs": [
        {
          "components": [
            {
              "internalType": "address",
              "name": "marketAgent",
              "type": "address"
            },
            {
              "internalType": "address",
              "name": "user",
              "type": "address"
            },
            {
              "internalType": "address",
              "name": "htsToken",
              "type": "address"
            },
            {
              "internalType": "int64",
              "name": "tokenAmount",
              "type": "int64"
            },
            {
              "internalType": "uint256",
              "name": "hbarAmountTinybars",
              "type": "uint256"
            },
            {
              "internalType": "uint256",
              "name": "deadline",
              "type": "uint256"
            },
            {
              "internalType": "enum AtomicSwap.TradeState",
              "name": "state",
              "type": "uint8"
            }
          ],
          "internalType": "struct AtomicSwap.Trade",
          "name": "",
          "type": "tuple"
        }
      ],
      "stateMutability": "view",
      "type": "function"
    },
    {
      "inputs": [
        {
          "internalType": "bytes32",
          "name": "tradeId",
          "type": "bytes32"
        },
        {
          "internalType": "address",
          "name": "user",
          "type": "address"
        },
        {
          "internalType": "address",
          "name": "htsToken",
          "type": "address"
        },
        {
          "internalType": "int64",
          "name": "tokenAmount",
          "type": "int64"
        },
        {
          "internalType": "uint256",
          "name": "hbarAmountTinybars",
          "type": "uint256"
        },
        {
          "internalType": "uint256",
          "name": "ttlSeconds",
          "type": "uint256"
        }
      ],
      "name": "initiateTrade",
      "outputs": [],
      "stateMutability": "payable",
      "type": "function"
    },
    {
      "inputs": [],
      "name": "reputationRegistry",
      "outputs": [
        {
          "internalType": "contract IERC8004Reputation",
          "name": "",
          "type": "address"
        }
      ],
      "stateMutability": "view",
      "type": "function"
    },
    {
      "stateMutability": "payable",
      "type": "receive"
    }
  ],
  "bytecode": "0x60a060405234801561001057600080fd5b50604051610d8b380380610d8b83398101604081905261002f91610040565b6001600160a01b0316608052610070565b60006020828403121561005257600080fd5b81516001600160a01b038116811461006957600080fd5b9392505050565b608051610cfa6100916000396000818160d701526109ae0152610cfa6000f3fe60806040526004361061004e5760003560e01c806344abe45d1461005a5780637cfb41b81461006f578063a3b137991461008f578063c8db44e3146100c5578063e04e23d21461011157600080fd5b3661005557005b600080fd5b61006d610068366004610b6a565b610131565b005b34801561007b57600080fd5b5061006d61008a366004610bcb565b6103e2565b34801561009b57600080fd5b506100af6100aa366004610bcb565b610553565b6040516100bc9190610bfa565b60405180910390f35b3480156100d157600080fd5b506100f97f000000000000000000000000000000000000000000000000000000000000000081565b6040516001600160a01b0390911681526020016100bc565b34801561011d57600080fd5b5061006d61012c366004610bcb565b610636565b6000868152602081905260409020546001600160a01b03161561016f57604051637930bc1f60e01b8152600481018790526024015b60405180910390fd5b81341461019857604051635d11dabf60e01b815234600482015260248101839052604401610166565b60405163248a35ef60e11b81523060048201526001600160a01b03851660248201526101679060009082906349146bde906044016020604051808303816000875af11580156101eb573d6000803e3d6000fd5b505050506040513d601f19601f8201168201806040525081019061020f9190610c79565b9050600781900b60161480159061022b57508060070b61016a14155b1561024f57604051630c05f92560e01b8152600782900b6004820152602401610166565b6040518060e00160405280336001600160a01b03168152602001886001600160a01b03168152602001876001600160a01b031681526020018660070b815260200185815260200184426102a29190610c9d565b81526020016000905260008981526020818152604091829020835181546001600160a01b039182166001600160a01b0319918216178355928501516001808401805492841692909516919091179093559284015160028083018054606088015167ffffffffffffffff16600160a01b026001600160e01b031990911693909616929092179490941790556080840151600382015560a0840151600482015560c084015160058201805492949193909260ff191691849081111561036757610367610be4565b021790555050506001600160a01b03871633897f473900c2af500f799b7aa749bd4617581fb824f95243fd53c04af6e031a731558989896103a88a42610c9d565b604080516001600160a01b03909516855260079390930b602085015291830152606082015260800160405180910390a45050505050505050565b600081815260208190526040902080546001600160a01b031661041b57604051634c11756560e01b815260048101839052602401610166565b6000600582015460ff16600281111561043657610436610be4565b146104575760405163d6eb984160e01b815260048101839052602401610166565b805460048201546001600160a01b039091163314904211811582610479575080155b1561049957604051637a0b9e7f60e11b8152336004820152602401610166565b60058301805460ff19166002179055825460038401546040516000926001600160a01b031691908381818185875af1925050503d80600081146104f8576040519150601f19603f3d011682016040523d82523d6000602084013e6104fd565b606091505b505090508061051f57604051631d42c86760e21b815260040160405180910390fd5b604051339086907f37bea1bad72947bbe287e44f80432b090eef483a8ae55f2bca77cd212beb54c990600090a35050505050565b6105906040805160e081018252600080825260208201819052918101829052606081018290526080810182905260a081018290529060c082015290565b60008281526020818152604091829020825160e08101845281546001600160a01b039081168252600183015481169382019390935260028083015493841694820194909452600160a01b90920460070b606083015260038101546080830152600481015460a083015260058101549192909160c084019160ff9091169081111561061c5761061c610be4565b600281111561062d5761062d610be4565b90525092915050565b600081815260208190526040902080546001600160a01b031661066f57604051634c11756560e01b815260048101839052602401610166565b6000600582015460ff16600281111561068a5761068a610be4565b146106ab5760405163d6eb984160e01b815260048101839052602401610166565b60018101546001600160a01b031633146106da57604051637a0b9e7f60e11b8152336004820152602401610166565b806004015442111561070c57600480820154604051630213e98d60e31b81529182018490526024820152604401610166565b60058101805460ff1916600190811790915560028201549082015460405163eca3691760e01b81526001600160a01b0380841660048301529091166024820152306044820152600160a01b90910460070b606482015261016790600090829063eca36917906084016020604051808303816000875af1158015610793573d6000803e3d6000fd5b505050506040513d601f19601f820116820180604052508101906107b79190610c79565b9050600781900b6016146107e45760405163dfb08d9d60e01b8152600782900b6004820152602401610166565b6002830154835460405163eca3691760e01b81526001600160a01b0380841660048301523060248301529182166044820152600160a01b90920460070b60648301526000919084169063eca36917906084016020604051808303816000875af1158015610855573d6000803e3d6000fd5b505050506040513d601f19601f820116820180604052508101906108799190610c79565b9050600781900b6016146108a65760405163dfb08d9d60e01b8152600782900b6004820152602401610166565b600184015460038501546040516000926001600160a01b031691908381818185875af1925050503d80600081146108f9576040519150601f19603f3d011682016040523d82523d6000602084013e6108fe565b606091505b505090508061092057604051631d42c86760e21b815260040160405180910390fd5b8454600186015460408051602081018a90526bffffffffffffffffffffffff19606094851b8116928201929092529190921b909116605482015242606882015260009060880160408051808303601f19018152908290528051602090910120875463a99c2d0160e01b83526001600160a01b03908116600484015260016024840152604483018290529092507f0000000000000000000000000000000000000000000000000000000000000000169063a99c2d0190606401600060405180830381600087803b1580156109f257600080fd5b505af1925050508015610a03575060015b610ac457600186015486546040516001600160a01b0392831692919091169089907fe5859fd8707132f0378bfe6e017d45c532feb8a381e5ed44fd6e84a6b60eccea90610ab39060208082526043908201527f536574746c6564202d2072657075746174696f6e20726567697374727920757060408201527f6461746520736b697070656420286167656e74206e6f7420726567697374657260608201526265642960e81b608082015260a00190565b60405180910390a450505050505050565b600186015486546040516001600160a01b0392831692919091169089907fe5859fd8707132f0378bfe6e017d45c532feb8a381e5ed44fd6e84a6b60eccea90610ab3906020808252818101527f536574746c6564202d2072657075746174696f6e20696e6372656d656e746564604082015260600190565b80356001600160a01b0381168114610b5357600080fd5b919050565b8060070b8114610b6757600080fd5b50565b60008060008060008060c08789031215610b8357600080fd5b86359550610b9360208801610b3c565b9450610ba160408801610b3c565b93506060870135610bb181610b58565b9598949750929560808101359460a0909101359350915050565b600060208284031215610bdd57600080fd5b5035919050565b634e487b7160e01b600052602160045260246000fd5b600060e08201905060018060a01b0380845116835280602085015116602084015280604085015116604084015250606083015160070b60608301526080830151608083015260a083015160a083015260c083015160038110610c6c57634e487b7160e01b600052602160045260246000fd5b8060c08401525092915050565b600060208284031215610c8b57600080fd5b8151610c9681610b58565b9392505050565b80820180821115610cbe57634e487b7160e01b600052601160045260246000fd5b9291505056fea264697066735822122016d564f6f4366161c54e2b68cc4754c00fa2172dcafac537015e5fff5f4499ce64736f6c63430008140033",
  "linkReferences": {},
  "deployedLinkReferences": {}
}